:1000000080310228893183290330F50075082000EA
:10001000E10001308B31172380312000E101E10A3A
:1000200008008A31E22280318831DE2080312000D0
:10003000B2003208AD008831F82080312000B300D2
:100040003308AE0004308931482180314430973183
:10005000C027803145309731C027803146309731F5
:10006000C027803141309731C027803155309731DA
:10007000C02780314C309731C027803154309731C0
:10008000C027803153309731C027803188316820B4
:1000900080318D310425803188317A2080318D3155
:1000A0007B25803108005130860000308700743095
:1000B0008400003085000530FF0016001A00FF0B99
:1000C0005D28F901FA017A08803AFF0080307F024A
:1000D000031D6C2805307902031C6F2870287228D4
:1000E0009228922800307907840098307A3D850064
:1000F0000008F3007908743E8600870173088100C8
:100100000130F9070030FA3D7A08803AFF0080306C
:100110007F02031D8D2805307902031C9028912849
:10012000722892287208F3007008743E86008701D6
:10013000730881008B1323001515151300309100EF
:10014000183092001516230055309600AA309600FC
:1001500095140000000023009512FB01FC017C08AF
:10016000803AFF0080307F02031DB82805307B02F3
:10017000031CBB28BC28BE28E528E5287B08003ED8
:100180002300910018307C3D920094017B08743E5E
:100190008600870101089300230055309600AA309D
:1001A00096009514000000000130FB070030FC3D74
:1001B0007C08803AFF0080307F02031DE128053073
:1001C0007B02031CE428E528BE28230015118B17A9
:1001D00008002000A101F31FEE28EF28FC28F009F9
:1001E000F109F209F309F00A0319F10A0319F20AF5
:1001F0000319F30AA101A10AF71FFF2800291029FA
:10020000F409F509F609F709F40A0319F50A0319BF
:10021000F60A0319F70A0130F8007808A106102938
:100220000030A5000030A4000030A3000030A20080
:10023000730872047104700403191F2920296729A7
:10024000A001A00A2F290130F035F10DF20DF30DB8
:10025000890B24290130F8007808A0072F29F31F03
:10026000322933292329352935290130A235A30D17
:10027000A40DA50D890B362973087702031D4A29A1
:1002800072087602031D4A2971087502031D4A2966
:1002900070087402031C4D294E2958297008F40275
:1002A0007108F53B7208F63B7308F73B2214582996
:1002B0000130F336F20CF10CF00C890B59290130A6
:1002C000A002031D642965293529672967292108AA
:1002D000031D6B297729A209A309A409A509A20A6C
:1002E0000319A30A0319A40A0319A50A77292508E3
:1002F000F3002408F2002308F1002208F00080290E
:100300000800FB0003302000A6002608E100883129
:100310005920813134302000A700F130A600A60B0F
:100320008F29A70B8F2994298831592081310630D4
:100330002000A7003030A600A60B9C29A70B9C2903
:10034000000088315920813106302000A70030306C
:10035000A600A60BA929A70BA929000020002408A4
:100360008931652181317B08043A031DB829B929F7
:10037000BE2928308B3117238131C22938308B3187
:100380001723813108308B311723813101308B31B4
:100390001723813106308B311723813114308B3193
:1003A0001723813102308B31172381310C308B318F
:1003B0001723813120002408A6002608E200250822
:1003C000A6002608DF008030F6000030F700620843
:1003D000A600A7016208FF3EF000FF3003180030BE
:1003E000F1005F08A800A9012808F2002908F3001D
:1003F0008931C5218131200026087007AA0027080D
:10040000713DAB002A08FF3EF800FF302B3DF9009C
:100410008C312B2481317608013E2000AC002C0861
:10042000DE005E08A6002608F0005F088A31B322CD
:1004300081312000A7002708E000D6019731B827B6
:1004400081310800F9007408860087018101F801F4
:10045000292A97317D278231F5007508FA007A083C
:100460000D3A0319342A352A152B7A080A3A031D46
:100470003A2A3B2A3D2A152B152B74088600870142
:100480000108FF3A0319452A462A4E2A0130F50091
:10049000740886008701750881074E2AF808031D35
:1004A000522A532A082B30307A02031C582A592A20
:1004B000662A3A307A0203185E2A5F2A662A790889
:1004C000860087018101F801F80A082B7A082B3A87
:1004D000031D6B2A6C2A712A0230F5007508F8009A
:1004E000082B7A082D3A031D762A772A7C2A0330B6
:1004F000F5007508F800082BFF30F5007508F800C6
:10050000082B082B082B082B082B30307A02031CF1
:100510008A2A8B2AC72A3A307A020318902A912A0B
:10052000C72A7A08D03EF5007508F70079088600DA
:1005300087010A300102031C9E2A9F2AAE2A7908ED
:100540008600870101080A3A031DA72AA82AC12AA2
:10055000F708031DAC2AAD2AC12AAE2A0A30F500DD
:100560007508F00079088600870101088831C520E8
:1005700082317707F60079088600870176088100C6
:10058000292AFF30F5007508F800292A292AFF30AA
:10059000F5007508F800292A292A7A082B3A031D44
:1005A000D22AD32AE52A790886008701643001021D
:1005B0000318DB2ADC2A292A0130F5007908860095
:1005C000870175088107292A292AFF30F500750857
:1005D000F800292A292A7A082D3A031DF02AF12A3F
:1005E000012B7908860087010108003A0319F92ACE
:1005F000FA2A292A79088600870101308102292AEE
:10060000292AFF30F5007508F800292A292A292A05
:100610007808013A0319852A033A0319CD2A013AC9
:100620000319EB2A292A292A292A7808FF3A031DC7
:100630001A2B1B2B1D2B0310202B0314202B202BDC
:1006400008008B318D23833122008C178A31882258
:100650008331031C2C2B2D2B532B80311120833104
:10066000312B22008C1303302000CB000830CA004D
:100670007830C900C90B3A2BCA0B3A2BCB0B3A2B5B
:1006800022008C1703302000CB000830CA007830DD
:10069000C900C90B492BCA0B492BCB0B492B640052
:1006A000312B312B532B8A315E2283319731C9276D
:1006B00083318831DE2083312000C9004908AD0034
:1006C0008831F82083312000CA004A08AE00883102
:1006D0008C2083318931482183312000CF01D00122
:1006E0006400832B273020004F0784009930503D51
:1006F000850000089731C027833101302000CF07E3
:100700000030D03D832B273020004F0784009930E4
:10071000503D850000080038031D8F2B902B722B55
:10072000912BCF01D0014030F6000030F7008E3120
:100730006D268331AC2B163020004F078400993092
:10074000503D850000089731C027833101302000DB
:10075000CF070030D03DAC2B163020004F0784006F
:100760009930503D850000080038031DB82BB92B87
:100770009B2BBA2B88317A2083318D317B258331B5
:100780008831682083318D31042583312000CD01EB
:10079000CE014E08803AFF0080307F02031DD22B2D
:1007A0000A304D02031CD52BD62BD82BF92BF92B55
:1007B000640003302000CB000830CA007830C90044
:1007C000C90BE02BCA0BE02BCB0BE02B0130200038
:1007D000CD070030CE3D4E08803AFF0080307F02CA
:1007E000031DF42B0A304D02031CF72BF82BD82BDA
:1007F000F92B8831DE2083312000C9004908A4008C
:100800008831F82083312000CA004A08A5008831C9
:100810008C20833181318121833122008C139731E7
:100820007D2783312000C9004908CC0022008C17A5
:1008300020004C0884312324833122008C130F2C98
:100840000F2C803102282000C800EC2F9731B827E8
:1008500084310A302000AF002F08C800FA2F9731EA
:100860007D2784312000AF002F08C5006C2F382C65
:100870008031042084310A302000AF002F08C800E6
:10088000FA2F8931E9218431031C472C482CFA2F97
:100890002000B801B9015C2C013038078400993080
:1008A000393D8500000897318227843101302000CE
:1008B000B8070030B93D5C2C01303807840099300E
:1008C000393D850000080038031D672C682C4C2C2E
:1008D000692C0A30AF002F08C800FA2FFA2F89318F
:1008E000E9218431031C752C762CFA2F8A315E2283
:1008F00084318831682084318D31042584318831F8
:100900007A2084318D317B2584318831DE20843119
:100910002000AF002F08A4008831F8208431200087
:10092000B0003008A50088318C20843181318121CC
:1009300084310A302000AF002F08C800FA2FFA2FA8
:1009400097317D2784312000AF002F08BF003F087A
:100950000D3A0319AC2CAD2CB42C3F080A3A031DF8
:10096000B22CB32CD12CB42C9731DD278431031851
:10097000BA2CBB2CC12C2D302000B1000030B200AD
:10098000C72C2B302000B1000030B200C72C31083A
:100990009731822784310A302000AF002F08C80029
:1009A000FA2F8931E9218431031CD72CD82CFA2F56
:1009B00020003F082B3A031DDE2CDF2CE92C0130F0
:1009C0008931122184310A302000AF002F08C8007D
:1009D000FA2F3F082D3A031DEE2CEF2CFA2F003092
:1009E0008931122184310A302000AF002F08C8005D
:1009F000FA2FFA2FFA2FFA2FFA2F97317D27843109
:100A00002000AF002F08C00040080D3A0319092D3F
:100A10000A2D112D40080A3A031D0F2D102D2E2DE1
:100A2000112D9731E82784310318172D182D1E2D0D
:100A30002D302000B3000030B400242D2B302000D6
:100A4000B3000030B400242D33089731822784315D
:100A50000A302000AF002F08C800FA2F8931E921A1
:100A60008431031C342D352DFA2F200040082B3AF9
:100A7000031D3B2D3C2D462D013089312D21843124
:100A80000A302000AF002F08C800FA2F40082D3A86
:100A9000031D4B2D4C2DFA2F003089312D2184312F
:100AA0000A302000AF002F08C800FA2FFA2FFA2FC3
:100AB000FA2FFA2F97317D2784312000AF002F08BD
:100AC000C10041080D3A0319662D672D6E2D4108AE
:100AD0000A3A031D6C2D6D2D8B2D6E2D9731D2276B
:100AE00084310318742D752D7B2D2D302000B50019
:100AF0000030B600812D2B302000B5000030B6004C
:100B0000812D35089731822784310A302000AF00CB
:100B10002F08C800FA2F8931E9218431031C912D57
:100B2000922DFA2F200041082B3A031D982D992D64
:100B3000A32D01308831B22084310A302000AF006B
:100B40002F08C800FA2F41082D3A031DA82DA92D02
:100B5000FA2F00308831B22084310A302000AF00F3
:100B60002F08C800FA2FFA2FFA2FFA2FFA2FB82DD4
:100B70008831682084312000AF002F08C6003A3049
:100B8000AF002F08F4004630823122228431031C4A
:100B9000CA2DCB2DFA2F2000BA08031DD02DD12D40
:100BA000D62D46088D31F2258431E12D20004608EE
:100BB0008D31042584312000460897319C278431EB
:100BC000E12D0A302000AF002F08C8004508423A46
:100BD000031DEB2DEC2DFA2F883117208431FA2FCD
:100BE000FA2FFA2FF32D88317A2084312000AF00BC
:100BF0002F08C7003B30AF002F08F4004730823188
:100C000022228431031C052E062EFA2F2000BB0859
:100C1000031D0B2E0C2E112E47088D31F225843129
:100C20001C2E200047088D317B2584312000470889
:100C300097318E2784311C2E0A302000AF002F08F8
:100C4000C8004508433A031D262E272EFA2F973158
:100C5000F3278431FA2FFA2FFA2F2E2E88318C2089
:100C600084312000AF002F08C2003C30AF002F08B5
:100C7000F40042308E31ED268431031C402E412E8B
:100C8000FA2F2000BC08031D462E472E572E42087F
:100C9000AF00B0012F08A8003008A9008C319624BD
:100CA00084310A302000AF002F08C800792E420896
:100CB000043A031D5C2E5D2E672E04309731952774
:100CC00084310A302000AF002F08C800792E420876
:100CD000083A031D6C2E6D2E792E0830973195271A
:100CE00084310A302000AF002F08C800792E792EF9
:100CF000792E48080A3A031D7E2E7F2EFA2F88315E
:100D0000DE2084312000AF002F08A4008831F820B5
:100D100084312000B0003008A50088318C20843157
:100D200081318121843120004508443A031D992EE8
:100D30009A2EFA2F883124208431FA2FFA2FFA2F95
:100D4000FA2FA22E8831F82084312000AF002F081E
:100D5000C3003D30AF002F08F40043308E31ED2644
:100D60008431031CB42EB52EFA2F2000BD08031DBC
:100D7000BA2EBB2ECB2E4308AF00B0012F08A8001F
:100D80003008A9008C31962484310A302000AF004D
:100D90002F08C800DC2E053043020318D02ED12EB8
:100DA000DC2E43089731AA2784310A302000AF0097
:100DB0002F08C800DC2EDC2E48080A3A031DE12E5D
:100DC000E22EFA2F8831DE2084312000AF002F0878
:100DD000A4008831F82084312000B0003008A5003C
:100DE00088318C2084318131812184312000450873
:100DF000483A031DFC2EFD2EFA2F88313E20843107
:100E0000FA2FFA2FFA2FFA2F052F8831DE2084319E
:100E10002000AF002F08C4003E30AF002F08F400C0
:100E200044308E31ED268431031C172F182FFA2FF2
:100E30002000BE08031D1D2F1E2F2E2F4408AF00BB
:100E4000B0012F08A8003008A9008C319624843105
:100E50000A302000AF002F08C8003F2F5130440255
:100E60000318332F342F3F2F44089731A3278431A1
:100E70000A302000AF002F08C8003F2F3F2F48083E
:100E80000A3A031D442F452FFA2F8831DE20843182
:100E90002000AF002F08A4008831F8208431200002
:100EA000B0003008A50088318C2084318131812147
:100EB000843120004508573A031D5F2F602FFA2F19
:100EC000883131208431FA2FFA2FFA2FFA2F893105
:100ED000E9218431FA2FFA2F200045080A3A031934
:100EE000382C073A0319382C2C3A03195A2D053A95
:100EF0000319FD2C0E3A0319A02C153A0319412CA5
:100F00007D3A0319B82D013A0319F32D073A031955
:100F10002E2E0C3A0319A22E1F3A0319052F353A2B
:100F20000319B82D013A0319F32D073A03192E2E90
:100F30000C3A0319A22E1F3A0319052F093A031977
:100F40006F2C672FFA2FA42F8E316D268431031C4E
:100F5000AA2FAB2FB12F0A302000AF002F08C800F6
:100F6000FA2F0D302000AF002F08C800FA2FFA2FFB
:100F70008031042084310A302000AF002F08C800DF
:100F8000FA2F97317D2784312000AF002F08B7005A
:100F900037088B31172384310A302000AF002F0827
:100FA000C800FA2F02309731B12784310A3020006F
:100FB000AF002F08C800FA2F01309731B1278431D4
:100FC0000A302000AF002F08C800FA2F48089731D8
:100FD000C0278431FA2FFA2F20004808F83E031C5E
:100FE000E62F8400083004020318E62F8831043508
:100FF000003E820020004808973182278431080093
:101000008431262C84312F2C8731A42F8731B82F9F
:101010008731C12F8731A42F8731D22F8731DC2F21
:10102000F500750880388B311723883108000130AE
:10103000F0000030F10020005808FD007D08F200AB
:1010400080315320883108000430F0000030F10076
:1010500020005908FD007D08F200803153208831BE
:1010600008000230F0000030F10020005C08FD00B4
:101070007D08F20080315320883108000330F000F1
:101080000030F10020005B08FD007D08F200803197
:10109000532088310800F0004E2864002000111E03
:1010A000522853284D285428700823009A006400C1
:1010B000080022008D120D120D118D100D140C164A
:1010C0008C110C118C100C108A31352288310800DB
:1010D00020005808F0007008F10065307102031C10
:1010E0007228732877286430F0007008F1007108C6
:1010F0007928080020005A08F0007008F1006530D7
:101100007102031C8428852889286430F000700847
:10111000F10071088B28080020005908043A0319CF
:101120009228932898280830F0000030F1009C287D
:101130000430F0000030F10070089E280800230001
:101140001D121D161908F0007008F1001908F000B2
:101150007008F1001908F0007008F1009D139D1748
:1011600064000800F7000030F708031D0130F500A7
:101170002000570806397504F6007608F80078084C
:1011800008388B31172388310800F300F201C82892
:10119000731CCB28CC28D1287008F1007108F20705
:1011A000D1280310F00D0310F30CF308031DD92808
:1011B000DA28C828DB287208DD28080020005C082F
:1011C000031DE328F12851305C020318E828E928C0
:1011D000F1285C08F000F1017008F2007108F300DA
:1011E000F5281430F2000030F3007208F7280800E8
:1011F00020005B08031DFD280B2905305B02031846
:10120000022903290B295B08F000F1017008F200A4
:101210007108F3000F290430F2000030F300720867
:1012200011290800F600F608031D172918291B29A3
:10123000F701F80120290430F7000030F8002029D8
:101240002000570803397704F5007508F90079087C
:1012500008388B31172389310800F600F608031D82
:10126000322933293629F701F8013B290230F700EA
:101270000030F8003B292000570805397704F500B5
:101280007508F900790808388B311723893108006F
:10129000FC0002302000B1000430B000BA30AF00D2
:1012A000AF0B5029B00B5029B10B50290000200082
:1012B0002D08AF002F08A4002E08B0003008A500AC
:1012C0007C088131812189310800F20022008D12D1
:1012D0000D120D118D100D147208043A031D7129A1
:1012E000742922000C16762922000C128C110C1184
:1012F0008C100C108A31352289317208F100710886
:101300002000DD000800D101D201D301D401D501B4
:10131000D601D701D801D901DA01DB01DC0188301F
:101320008400973085001200DD001200DE001200FC
:10133000DF001200E0001200E1001200E2002000D5
:101340008331212B640023001D1DA729A829AC2966
:1013500088319F208931AC2923009D1CB029B129F7
:10136000B72988319F208931B729B7296400200027
:10137000911EBB29BC29B629BD2923001908F200FA
:101380007208F3007308C4290800F401F501C829A4
:10139000701CCB29CC29D0297208F4077308F53DBD
:1013A0000130F235F30D890BD1290130F136F00C03
:1013B000890BD62971087004031DDF29E029C8298B
:1013C000E1297508F101F1077408F001F007E82937
:1013D0000800F501F50AEC2997317D278931F400E1
:1013E0007408F60076080D3A0319F729F829032A3C
:1013F00076080A3A031DFD29FE29002A032A032A3A
:10140000F501EC29EC29F508031D072A082A0A2A08
:1014100003100D2A03140D2A0D2A0800F3000830CA
:10142000F1007108F400F501152A7308F100073086
:10143000F136890B182A750809077104F200720841
:10144000F5000310F30D70087502031C282A292AE1
:101450002B2A7008F5020130F402031D302A312ACC
:10146000152A322A7508342A08002000611C392AFE
:101470003A2A3C2A22008D152000E11C402A412AEC
:10148000442A22000E14442A0630F000F00B462AAB
:1014900000002000611C4D2A4E2A502A22008D1186
:1014A0002000E11C542A552A582A22000E10582ADE
:1014B0001A30F000F00B5A2A0000080000308400B7
:1014C000983085000008F00070082000DA00013034
:1014D0008400983085000008F0007008D8000230C1
:1014E0008400983085000008F0007008DC000330AC
:1014F0008400983085000008F0007008DB0004309C
:101500008400983085000008F0007008D9000800B9
:10151000F201F20A21000C1422008C100630F100B6
:101520003030F000F00B922AF10B922A00002000DC
:101530000C1C9B2A9C2A9D2AF20122008C14063046
:10154000F1003030F000F00BA32AF10BA32A0000C9
:1015500020000C18AC2AAD2AAE2AF20121000C1092
:10156000720CB22A0800F200F4017008031DB92AB7
:10157000DF2AF301F30AC32A0310F00D0130F10052
:101580007108F307C32AF01FC62AC72ABC2AC92A32
:10159000C92A0310F40D70087202031CD02AD12A44
:1015A000D52A7008F2027414D52A0310F00C013009
:1015B000F302031DDC2ADD2AC92ADF2ADF2A740888
:1015C000E12A08000130F0000030F100F201803122
:1015D00053208A310030F0000030F1003230FD003D
:1015E0007D08F200803153208A310230F000003053
:1015F000F1001430FD007D08F200803153208A3163
:101600000330F0000030F1000430FD007D08F200EE
:10161000803153208A310430F0000030F10008306E
:10162000FD007D08F200803153208A310800F4006B
:1016300022008D120D1274088F3173278B317408BC
:10164000013A0319242B252B2B2B7408023A031D76
:101650002A2B2B2B372B2000D6010B30F3006230C6
:10166000F200F20B312BF30B312B00004D2BF83035
:101670007405F2007208083A031D3F2B402B472BDC
:1016800074080739F20072082000D7004D2B213072
:10169000F200F20B492B4D2B4D2B080020002608A1
:1016A000F0002708F100890D893B8909F200F30059
:1016B0000030F700F430F6002430F5000030F4007C
:1016C0008031E9208B317308FC007208FB0071083F
:1016D000FA007008F9000030F3000030F20000302A
:1016E000F1001030F0007C08F7007B08F6007A0863
:1016F000F5007908F4008031E9208B317008FF3E55
:1017000023009B009F111E151E129D179E161D166D
:10171000640088319F208B3108008B13210019173A
:1017200099161916991597121716971117159710DC
:10173000640023008C018D0118308E006030210080
:101740008C00C0308D00FE308E0022008C018D0197
:101750008E010F3020009B00250093151315931068
:10176000131020001B08250091009A161A169A15CE
:101770001A159A101A1098019A121A122000911034
:101780009C101C101C15C42B911CC72BC82BC42BE0
:1017900021008E100E110800FD012000A71FD12B83
:1017A000D22BDA2BA609A709A60A0319A70AFD015D
:1017B000FD0ADA2BA51FDD2BDE2BE42BA409A509DE
:1017C000A40A0319A50AE42B250824040319E92B0C
:1017D000EA2B192CFC01FC0AF72B0130A435A50DCE
:1017E000890BEE2B0130FB007B08FC07F72BA51FB4
:1017F000FA2BFB2BED2BFD2BFD2B25082702031DC0
:10180000032C24082602031C062C072C0C2C24086D
:10181000A6022508A73B0C2C0130A536A40C890B89
:101820000D2C0130FC02031D162C172CFD2B192C3E
:10183000192C7D08031D1D2C232CA609A709A60A17
:101840000319A70A232C2708A501A5072608A40128
:10185000A4072A2C08002000A101F71F302C312CEE
:10186000392CF609F709F60A0319F70AA101A10AAA
:10187000392CF91F3C2C3D2C472CF809F909F80AA2
:101880000319F90A0130FA007A08A106472CA201CF
:10189000A3017708760403194E2C4F2C842CA00149
:1018A000A00A5C2C0130F635F70D890B532C013062
:1018B000FA007A08A0075C2CF71F5F2C602C522CD2
:1018C000622C622C0130A235A30D890B632C7708A2
:1018D0007902031D6D2C76087802031C702C712C84
:1018E000772C7608F8027708F93B2214772C013020
:1018F000F736F60C890B782C0130A002031D812CE1
:10190000822C622C842C842C2108031D882C8E2C84
:10191000A209A309A20A0319A30A8E2C2308F7011E
:10192000F7072208F601F607952C08001030200072
:10193000AD002730AE00AC01AC0AEB2C0A30200021
:10194000A4000030A5002E08F701F7072D08F601C6
:10195000F6072908F901F9072808F801F8078C317A
:101960002B248C3177082000A701A7077608A60151
:10197000A6078B31CC238C3120002508AB01AB07A7
:101980002408AA01AA072B082A04031DC82CC92C65
:10199000CF2C2C08031DCD2CCF2CD62CD62C2A08CE
:1019A000303E973182278C312000AC010A30F6009E
:1019B0000030F7002E08F901F9072D08F801F807A3
:1019C0008C312B248C3177082000AE01AE077608CD
:1019D000AD01AD07EB2C2E08803AFF0080307F026E
:1019E000031DF42C01302D020318F72CF82C9E2C2B
:1019F000F92C20002C08031DFE2C032D30309731CC
:101A000082278C31032D08002000AC003F30F80005
:101A10000030F9001B08A400A5012408F6002508E1
:101A2000F7008C312B248D3177082000A901A907FC
:101A30007608A801A807FF30F2000030F3002C0858
:101A4000A400A501A409A509A40A0319A50A24084C
:101A5000643EF0000030253DF1008931C5218D3113
:101A60007108F901F9077008F801F8076430F60009
:101A70000030F7008C312B248D3176082000A60031
:101A8000A7012608AA002708AB002908F701F707D5
:101A90002808F601F6072B08F901F9072A08F801CA
:101AA000F8078C312B248D3176082000A4002408FF
:101AB000AD002D185C2D5F2D25001316612D25001E
:101AC000131220002D08A4000130A436890B652DC7
:101AD00024186B2D6E2D25009316702D2500931262
:101AE00020002D08A4000230A436890B742D240890
:101AF0002500910008002000AC003F30F8000030C5
:101B0000F9001B08A400A5012408F6002508F70029
:101B10008C312B248D3177082000A901A907760884
:101B2000A801A807FF30F2000030F3002C08A40041
:101B3000A501A409A509A40A0319A50A2408643E5D
:101B4000F0000030253DF1008931C5218D3171084B
:101B5000F901F9077008F801F8076430F600003061
:101B6000F7008C312B248D3176082000A600A701C8
:101B70002608AA002708AB002908F701F70728085C
:101B8000F601F6072B08F901F9072A08F801F8070A
:101B90008C312B248D3176082000A4002408AD0060
:101BA0002D18D32DD62D25001A16D82D25001A1242
:101BB00020002D08A4000130A436890BDC2D241848
:101BC000E22DE52D25009A16E72D25009A1220001A
:101BD0002D08A4000230A436890BEB2D2408250023
:101BE000980008002000AC006430F6000030F700D8
:101BF0002C08A800A9012808F8002908F9008C3150
:101C00002B248D3176082000AA002A08AB000A3068
:101C1000A4000030A5000A30F6000030F7002C08C0
:101C2000A800A9012808F8002908F9008C312B2404
:101C30008D3177082000A701A7077608A601A6071F
:101C40008B31CC238D3120002408AA002A08AD0056
:101C50000A30A4000030A5002C08A800A90128081B
:101C6000A6002908A7008B31CC238D312000240841
:101C7000AA002A08AE00AB08031D3F2E402E592EA5
:101C8000AD08031D442E452E4B2E2E08303E9731B5
:101C900082278D316C2E20002D08303E973182270F
:101CA0008D3120002E08303E973182278D316C2EE9
:101CB0006C2E20002B08303E973182278D3120007A
:101CC0002D08303E973182278D3120002E08303E7E
:101CD000973182278D316C2E08000130F80078088A
:101CE0002000D6075F0856020318772E782EE52EBF
:101CF0006008F8007808F00056088A31B3228E3167
:101D0000F90079082000A100912EE101E10A992E45
:101D10000230F8007808E100992E0310EC2EEC2E2A
:101D2000992E2108003A0319852E013A0319882EAD
:101D30008D2E5E08F8007808F00056088A31B3222C
:101D40008E31F90020005E08FA007A08F00056088B
:101D50008A310E228E317907FB0020002103FF3AE1
:101D60007B07FC007C08A000D52E003088311020B5
:101D70008E310314EC2EEC2E4030883110208E3141
:101D80000314EC2EEC2E1430883110208E31031405
:101D9000EC2EEC2E5430883110208E310314EC2EB2
:101DA000EC2E0310EC2EEC2EEC2E20002008003A36
:101DB0000319B52E013A0319BC2E033A0319C32E99
:101DC000013A0319CA2ED12EEC2E5F08F8007808CC
:101DD000D6000310EC2EEC2E0800F70074088600E5
:101DE00087018101F901F90AFA01F62E97317D2761
:101DF0008E31F5007508FB007B080D3A0319012FA1
:101E0000022F562F7B080A3A031D072F082F0A2F8F
:101E1000562F562F7408860087010108FF3A0319D0
:101E2000122F132F1B2F0130F50074088600870135
:101E3000750881071B2F7908031D1F2F522F303083
:101E40007B02031C242F252F522F3A307B020318CC
:101E50002A2F2B2F522F7B08D03EF5007508F80053
:101E60000A307A02031C352F362F422F7A080A3A9D
:101E7000031D3B2F3C2F4F2FF808031D402F412FF0
:101E80004F2F422F0A30F5007508F0007A0888318C
:101E9000C5208E317807F6007608FA00F62EF90193
:101EA000F62EF62EF901F62EF62EF62E7908031DE3
:101EB0005A2F6F2F7408860087010108003A031912
:101EC000622F632F6B2F7A08F50077088600870151
:101ED000750881006B2F0314722F722F722F03105D
:101EE000722F722F0800F10020005D08043A031DD4
:101EF0007A2F7B2FC02FF11F7E2F7F2F822F220062
:101F00000D15842F22000D11711F872F882F8A2F06
:101F10008D148B2F8D10F11E8E2F8F2F912F0D145E
:101F2000922F0D10711E952F962F982F0C169A2F09
:101F30000C129A2F8A3135228F31F11DA02FA12F3B
:101F4000A42F22000D15A62F22000D11711DA92FFF
:101F5000AA2FAC2F8D14AD2F8D10F11CB02FB12FE7
:101F6000B32F0D14B42F0D10711CB72FB82FBA2F2B
:101F70000C16BC2F0C12BC2F8A3135228F31FF2F4B
:101F8000F11FC32FC42FC72F22000D15C92F220008
:101F90000D11711FCC2FCD2FCF2F8D14D02F8D1061
:101FA000F11ED32FD42FD62F0D14D72F0D10711E45
:101FB000DA2FDB2FDD2F0C16DE2F0C12F11DE12F97
:101FC000E22FE42F8C15E52F8C11711DE82FE92FDE
:101FD000EB2F0C15EC2F0C11F11CEF2FF02FF22F23
:101FE0008C14F32F8C10711CF62FF72FF92F0C1473
:101FF000FB2F0C10FB2F8A3135228F31FF2F080069
:102EFA008931A2219731812F0800F10071088831A8
:102F0A004B20973108000834013404340434013466
:102F1A001434F1007108F00070082000DA0008008B
:102F2A00F1007108F00070082000D9000800F100D3
:102F3A007108F00070082000D8000800F10071083C
:102F4A00F00070082000DC000800F1007108F000B1
:102F5A0070082000DB000800F1007108F00070081A
:102F6A002000E10008002000E101E10A02308B3173
:102F7A00172397310800F20022008D160D127208ED
:102F8A008F3173279731080080302000A600253042
:102F9A00A7008B314E239731080020005718D62FEF
:102FAA00D72FD92F0310DC2F0314DC2FDC2F0800B6
:102FBA0020005719E12FE22FE42F0310E72F031403
:102FCA00E72FE72F08002000D718EC2FED2FEF2F5F
:102FDA000310F22F0314F22FF22F08000030F00032
:102FEA000030F10020005A08FD007D08F20080310F
:102FFA00532097310800323400341434043408342E
:10300A000034003400340034003400340034003416
:10301A000034003400340034003400340034003406
:10302A0000340034003400340034003400340034F6
:06303A00003400340034F4
:10320000003445346C3473346934643469342034A4
:103210004C34203432343034313433342D3430347F
:1032200031342D343234353400340034773477344B
:1032300077342E346A346D346534643476346534CE
:1032400064342E3463346F346D34003400344534C8
:0E3250006C34733469346434693400340034EF
:020000040001F9
:04000E009CEFEFD3A1
:00000001FF
