:10000000803102288A31872AF00007286400200006
:10001000111E0B280C2806280D28700823009A00B2
:100020006400080001308931402180318931B121DB
:10003000803132308931472180318931BE21803190
:1000400008308931392180318931A4218031013052
:10005000893132218031893197218031F901F90AC2
:1000600004308A3157228031443089316421803113
:1000700045308931642180314630893164218031B5
:10008000413089316421803155308931642180319A
:100090004C30893164218031543089316421803180
:1000A00053308931642180318931F92180318F3198
:1000B0000E2780318931E72180318E3197268031BA
:1000C0000800F7007408860087018101F901F90A28
:1000D000FA016A28893127218031F5007508FB0073
:1000E0007B080D3A031975287628CA287B080A3A36
:1000F000031D7B287C287E28CA28CA28740886000D
:1001000087010108FF3A0319862887288F280130C4
:10011000F500740886008701750881078F28790823
:10012000031D9328C62830307B02031C9828992889
:10013000C6283A307B0203189E289F28C6287B08D1
:10014000D03EF5007508F8000A307A02031CA92891
:10015000AA28B6287A080A3A031DAF28B028C3286F
:10016000F808031DB428B528C328B6280A30F500BE
:100170007508F0007A088A316E2280317807F6001F
:100180007608FA006A28F9016A286A28F9016A28BB
:100190006A286A287908031DCE28E3287408860097
:1001A00087010108003A0319D628D728DF287A08E2
:1001B000F50077088600870175088100DF280314A1
:1001C000E628E628E6280310E628E6280800F100DD
:1001D00020005A08043A031DEE28EF283429F11FA5
:1001E000F228F328F62822000D15F82822000D1118
:1001F000711FFB28FC28FE288D14FF288D10F11E8E
:100200000229032905290D1406290D10711E09293B
:100210000A290C290C160E290C120E298B31822367
:100220008031F11D14291529182922000D151A29CC
:1002300022000D11711D1D291E2920298D1421292F
:100240008D10F11C2429252927290D1428290D108A
:10025000711C2B292C292E290C1630290C1230291F
:100260008B31822380317329F11F372938293B29AB
:1002700022000D153D2922000D11711F4029412931
:1002800043298D1444298D10F11E472948294A29F4
:100290000D144B290D10711E4E294F2951290C1692
:1002A00052290C12F11D5529562958298C15592906
:1002B0008C11711D5C295D295F290C1560290C11B9
:1002C000F11C6329642966298C1467298C10711C20
:1002D0006A296B296D290C146F290C106F298B3139
:1002E000822380317329080020005208F70051084A
:1002F000F6005008F5004F08F400F801F9017908FC
:10030000803AFF0080307F02031D88290430780284
:10031000031C8B298C298E29AE29AE290030780741
:1003200084009830793D85000008F3007808743E19
:1003300086008701730881000130F8070030F93D1D
:100340007908803AFF0080307F02031DA92904301C
:100350007802031CAC29AD298E29AE297208F3005E
:100360007008743E86008701730881008B13230098
:100370001515151300309100183092001516230042
:1003800055309600AA309600951400000000230016
:100390009512FA01FB017B08803AFF0080307F0252
:1003A000031DD42904307A02031CD729D829DA295D
:1003B000012A012A7A08003E2300910018307B3D73
:1003C000920094017A08743E860087010108930028
:1003D000230055309600AA309600951400000000C6
:1003E0000130FA070030FB3D7B08803AFF00803087
:1003F0007F02031DFD2904307A02031C002A012A12
:10040000DA29230015118B1708002000A101F31F22
:100410000A2A0B2A182AF009F109F209F309F00A4D
:100420000319F10A0319F20A0319F30AA101A10A37
:10043000F71F1B2A1C2A2C2AF409F509F609F709CB
:10044000F40A0319F50A0319F60A0319F70A013029
:10045000F8007808A1062C2A0030A5000030A4007E
:100460000030A3000030A20073087204710470040D
:1004700003193B2A3C2A832AA001A00A4B2A0130F7
:10048000F035F10DF20DF30D890B402A0130F80023
:100490007808A0074B2AF31F4E2A4F2A3F2A512AD9
:1004A000512A0130A235A30DA40DA50D890B522AA6
:1004B00073087702031D662A72087602031D662AF6
:1004C00071087502031D662A70087402031C692AEC
:1004D0006A2A742A7008F4027108F53B7208F63B28
:1004E0007308F73B2214742A0130F336F20CF10C36
:1004F000F00C890B752A0130A002031D802A812A85
:10050000512A832A832A2108031D872A932AA209B4
:10051000A309A409A509A20A0319A30A0319A40A95
:100520000319A50A932A2508F3002408F2002308DA
:10053000F1002208F0009C2A08008C314C24823102
:1005400022008C178B31AB238231031CA82AA92AE5
:10055000CF2A803112208231AD2A22008C13033041
:100560002000C9000830C8007830C700C70BB62A81
:10057000C80BB62AC90BB62A22008C1703302000FC
:10058000C9000830C8007830C700C70BC52AC80B9F
:10059000C52AC90BC52A6400AD2AAD2ACF2A8A31E3
:1005A000F422823189316D2182318A310B228231EC
:1005B0002000C7004708F9008A311E2282318A31A3
:1005C000572282312000CD01CE016400F82A273065
:1005D00020004D07840099304E3D85000008893188
:1005E0006421823101302000CD070030CE3DF82A51
:1005F000273020004D07840099304E3D85000008CB
:100600000038031D042B052BE72A062BCD01CE0154
:100610004030F6000030F7008E3122268231212B47
:10062000163020004D07840099304E3D85000008AB
:1006300089316421823101302000CD070030CE3D68
:10064000212B163020004D07840099304E3D850047
:1006500000080038031D2D2B2E2B102B2F2B89313A
:10066000E72182318E31972682318931F921823119
:100670008F310E2782312000CB01CC014C08803A0B
:10068000FF0080307F02031D472B0A304B02031C02
:100690004A2B4B2B4D2B6E2B6E2B6400033020000E
:1006A000C9000830C8007830C700C70B552BC80BED
:1006B000552BC90B552B01302000CB070030CC3D0A
:1006C0004C08803AFF0080307F02031D692B0A30FE
:1006D0004B02031C6C2B6D2B4D2B6E2B8A310B2286
:1006E00082312000C7004708F5008A311E2282317E
:1006F0008C31EA24823122008C1389312721823106
:100700002000C7004708CA0022008C1720004A08B2
:1007100084319024823122008C137D2B7D2B8031FB
:100720000228F9007408860087018101F801982BDE
:10073000893127218331F5007508FA007A080D3ACE
:100740000319A32BA42B842C7A080A3A031DA92B86
:10075000AA2BAC2B842C842C7408860087010108FA
:10076000FF3A0319B42BB52BBD2B0130F5007408EB
:100770008600870175088107BD2BF808031DC12B72
:10078000C22B772C30307A02031CC72BC82BD52BF9
:100790003A307A020318CD2BCE2BD52B7908860060
:1007A00087018101F801F80A772C7A082B3A031D9A
:1007B000DA2BDB2BE02B0230F5007508F800772CE4
:1007C0007A082D3A031DE52BE62BEB2B0330F500C1
:1007D0007508F800772CFF30F5007508F800772CC5
:1007E000772C772C772C772C30307A02031CF92B5E
:1007F000FA2B362C3A307A020318FF2B002C362CB9
:100800007A08D03EF5007508F70079088600870160
:100810000A300102031C0D2C0E2C1D2C79088600B9
:10082000870101080A3A031D162C172C302CF708F3
:10083000031D1B2C1C2C302C1D2C0A30F5007508B8
:10084000F00079088600870101088A316E22833121
:100850007707F60079088600870176088100982BD3
:10086000FF30F5007508F800982B982BFF30F50045
:100870007508F800982B982B7A082B3A031D412C09
:10088000422C542C79088600870164300102031839
:100890004A2C4B2C982B0130F500790886008701F3
:1008A00075088107982B982BFF30F5007508F80024
:1008B000982B982B7A082D3A031D5F2C602C702CF6
:1008C0007908860087010108003A0319682C692C11
:1008D000982B79088600870101308102982B982B8C
:1008E000FF30F5007508F800982B982B982B7808A6
:1008F000013A0319F42B033A03193C2C013A03196A
:100900005A2C982B982B982B7808FF3A031D892C8A
:100910008A2C8C2C03108F2C03148F2C8F2C080006
:100920002000C600EC2F89315C2184310A30200080
:10093000AF002F08C600FA2F89312721843120000B
:10094000AF002F08C300722FA52C8931CB21843131
:100950000A302000AF002F08C600FA2F8B315D232C
:100960008431031CB42CB52CFA2F2000B801B90136
:10097000C92C0130380784009930393D85000008C2
:1009800089312C21843101302000B8070030B93D75
:10099000C92C0130380784009930393D85000008A2
:1009A0000038031DD42CD52CB92CD62C0A30AF001E
:1009B0002F08C600FA2FFA2F8B315D238431031CD8
:1009C000E22CE32CFA2F8A31F42284318931F92187
:1009D00084318F310E2784318931E72184318E3182
:1009E000972684318A310B2284312000AF002F08F2
:1009F000F5008A311E2284318C31EA2484310A3098
:100A00002000AF002F08C600FA2FFA2F89312721C6
:100A100084312000AF002F08BE003E080D3A0319B4
:100A2000122D132D1A2D3E080A3A031D182D192DCB
:100A3000372D1A2D8931762184310318202D212D4F
:100A4000272D2D302000B1000030B2002D2D2B308D
:100A50002000B1000030B2002D2D310889312C2149
:100A600084310A302000AF002F08C600FA2F8B31E6
:100A70005D238431031C3D2D3E2DFA2F20003E08BE
:100A80002B3A031D442D452D4F2D01308A31A022D4
:100A900084310A302000AF002F08C600FA2F3E082C
:100AA0002D3A031D542D552DFA2F00308A31A022E6
:100AB00084310A302000AF002F08C600FA2FFA2F29
:100AC000FA2FFA2FFA2F8931272184312000AF0025
:100AD0002F08BF003F080D3A03196F2D702D772D99
:100AE0003F080A3A031D752D762D942D772D8931F7
:100AF0008121843103187D2D7E2D842D2D30200001
:100B0000B3000030B4008A2D2B302000B300003039
:100B1000B4008A2D330889312C2184310A30200019
:100B2000AF002F08C600FA2F8B315D238431031CE0
:100B30009A2D9B2DFA2F20003F082B3A031DA12D43
:100B4000A22DAC2D01308A31BB2284310A30200025
:100B5000AF002F08C600FA2F3F082D3A031DB12D14
:100B6000B22DFA2F00308A31BB2284310A302000A6
:100B7000AF002F08C600FA2FFA2FFA2FFA2FFA2FFC
:100B80008931272184312000AF002F08C0004008A0
:100B90000D3A0319CC2DCD2DD42D40080A3A031D52
:100BA000D22DD32DF12DD42D89318C2184310318F0
:100BB000DA2DDB2DE12D2D302000B5000030B60000
:100BC000E72D2B302000B5000030B600E72D3508AA
:100BD00089312C2184310A302000AF002F08C60053
:100BE000FA2F8B315D238431031CF72DF82DFA2F5A
:100BF000200040082B3A031DFE2DFF2D092E013049
:100C00008A31442284310A302000AF002F08C60008
:100C1000FA2F40082D3A031D0E2E0F2EFA2F00300A
:100C20008A31442284310A302000AF002F08C600E8
:100C3000FA2FFA2FFA2FFA2FFA2F1E2E8931F921C7
:100C400084312000AF002F08C4003A30AF002F08D5
:100C5000F4004430833191238431031C302E312E33
:100C6000FA2F2000BA08031D362E372E3C2E4408DA
:100C70008F3185278431472E200044088F310E277D
:100C8000843120004408893140218431472E0A30C4
:100C90002000AF002F08C6004308423A031D512E22
:100CA000522EFA2F8931B1218431FA2FFA2FFA2FDF
:100CB000592E8931E72184312000AF002F08C5006B
:100CC0003B30AF002F08F40045308331912384314D
:100CD000031C6B2E6C2EFA2F2000BB08031D712EF7
:100CE000722E772E45088F3185278431822E200081
:100CF00045088E31972684312000450889314721E7
:100D00008431822E0A302000AF002F08C60043082D
:100D1000433A031D8C2E8D2EFA2F8931BE2184314A
:100D2000FA2FFA2FFA2F942E8A310B2284312000C9
:100D3000AF002F08C1003C30AF002F08F400413055
:100D4000803161208431031CA62EA72EFA2F2000AB
:100D5000BC08031DAC2EAD2EBD2E4108AF00B00166
:100D60002F08A8003008A9008D31B42584310A303D
:100D70002000AF002F08C600DF2E4108013A031DF6
:100D8000C22EC32ECD2E01308931392184310A3053
:100D90002000AF002F08C600DF2E4108023A031DD5
:100DA000D22ED32EDF2E02308931322184310A3007
:100DB0002000AF002F08C600DF2EDF2EDF2E4608F2
:100DC0000A3A031DE42EE52EFA2F8A310B228431D4
:100DD0002000AF002F08F5008A311E2284318C31AB
:100DE000EA24843120004308443A031DF82EF92EEA
:100DF000FA2F893197218431FA2FFA2FFA2FFA2FFF
:100E0000012F8A311E2284312000AF002F08C2003A
:100E10003D30AF002F08F400423080316120843132
:100E2000031C132F142FFA2F2000BD08031D192FA8
:100E30001A2F2A2F4208AF00B0012F08A80030084F
:100E4000A9008D31B42584310A302000AF002F086D
:100E5000C6004C2F4208043A031D2F2F302F3A2F83
:100E600004308931392184310A302000AF002F0845
:100E7000C6004C2F4208083A031D3F2F402F4C2F2D
:100E800008308931392184310A302000AF002F0821
:100E9000C6004C2F4C2F4C2F46080A3A031D512FE9
:100EA000522FFA2F8A310B2284312000AF002F08F5
:100EB000F5008A311E2284318C31EA2484312000ED
:100EC0004308493A031D652F662FFA2F8931A42163
:100ED0008431FA2FFA2FFA2FFA2F8B315D238431C8
:100EE000FA2FFA2F200043080A3A0319A52C073AD3
:100EF0000319A52C2C3A0319C02D053A0319632DAB
:100F00000E3A0319062D153A0319AE2C7D3A031932
:100F10001E2E013A0319592E073A0319942E0D3A41
:100F20000319012F2B3A03191E2E013A0319592ECA
:100F3000073A0319942E0D3A0319012F173A031992
:100F4000DC2C6D2FFA2FA42F8E3122268431031C26
:100F5000AA2FAB2FB12F0A302000AF002F08C600F8
:100F6000FA2F0D302000AF002F08C600FA2FFA2FFD
:100F70008931CB2184310A302000AF002F08C60010
:100F8000FA2F8931272184312000AF002F08B700C4
:100F900037088B31D62384310A302000AF002F0868
:100FA000C600FA2F023089314E2184310A302000E8
:100FB000AF002F08C600FA2F013089314E2184314D
:100FC0000A302000AF002F08C600FA2F46088931EA
:100FD00064218431FA2FFA2F20004608F83E031CC2
:100FE000E62F8400083004020318E62F8831043508
:100FF000003E82002000460889312C2184310800FF
:101000008431932C84319C2C8731A42F8731B82FC5
:101010008731C12F8731A42F8731D22F8731DC2F21
:101248000134083401348B31162389312B290800E5
:10125800F10071088031042089310800F10071081B
:10126800F00070082000D7000800F1007108F000B5
:1012780070082000D8000800F1007108F00070081C
:101288002000D5000800F1007108F0007008200067
:10129800D6000800F1007108F00070082000DB009B
:1012A8000800F500750880388B31D623893108008D
:1012B8002000DB01DB0A02308B31D623893108009C
:1012C800F20022008D160D1272088031E720893154
:1012D800080080302000A6002530A7008C310D249E
:1012E80089310800200054197A297B297D290310A7
:1012F800802903148029802908002000D418852912
:101308008629882903108B2903148B298B29080027
:101318002000541890299129932903109629031421
:101328009629962908000330F0000030F1002000CB
:101338005708FC007C08F2008131742189310800CB
:101348000230F0000030F10020005808FC007C0852
:10135800F20081317421893108000130F000003039
:10136800F10020005508FC007C08F200813174214E
:10137800893108000030F0000030F10020005608E4
:10138800FC007C08F20081317421893108000330A7
:10139800F50075082000DB0001308B31D623893138
:1013A8002000DB01DB0A080022008D120D120D114E
:1013B8008D100D140C168C110C118C100C108B3117
:1013C80082238931080020005608F0007008F100D7
:1013D80065307102031CF129F229F6296430F00006
:1013E8007008F1007108F829080020005508F0007D
:1013F8007008F10065307102031C032A042A082AC8
:101408006430F0007008F10071080A2A0800200012
:101418005708023A0319112A122A172A0130F00034
:101428000030F1001B2A0230F0000030F100700893
:101438001D2A080020005808043A0319242A252ADE
:101448002A2A0830F0000030F1002E2A0430F0007B
:101458000030F1007008302A080023001D121D1604
:101468001908F0007008F1001908F0007008F10080
:101478001908F0007008F1009D139D17640008001A
:10148800F7000030F708031D0130F500200054086C
:1014980006397504F6007608F800780808388B31A4
:1014A800D6238A310800FD000230FC000430FB001E
:1014B800BA30FA00FA0B5E2AFB0B5E2AFC0B5E2A96
:1014C80000007908FA007A08F5007D088C31EA24D2
:1014D8008A310800F300F201712A731C742A752AF4
:1014E8007A2A7008F1007108F2077A2A0310F00DC1
:1014F8000310F30CF308031D822A832A712A842A15
:101508007208862A0800CF01D001D101D201D30187
:10151800D401D501D601D701D801893124218A31D6
:10152800D900893125218A31DA00893126218A3189
:10153800DB00200082319D2AF600F608031DA52A4B
:10154800A62AA92AF701F801AE2A0430F7000030CC
:10155800F800AE2A2000540803397704F50075080E
:10156800F900790808388B31D6238A310800F6004B
:10157800F608031DC02AC12AC42AF701F801C92A9E
:101588000230F7000030F800C92A20005408053955
:101598007704F5007508F900790808388B31D623E7
:1015A8008A310800F20022008D120D120D118D10E3
:1015B8000D147208043A031DE22AE52A22000C16CB
:1015C800E72A22000C128C110C118C100C108B3194
:1015D80082238A317208F10071082000DA000800BD
:1015E80000308400983085000008F0007008200062
:1015F800D60001308400983085000008F00070089B
:10160800D50002308400983085000008F00070088A
:10161800D80003308400983085000008F000700876
:10162800D7000800640023001D1D1B2B1C2B202B3A
:101638008A3131228B31202B23009D1C242B252B12
:101648002B2B8A3131228B312B2B2B2B6400200042
:10165800911E2F2B302B2A2B312B23001908F20037
:101668007208F3007308382B0800F401F5013C2BCD
:10167800701C3F2B402B442B7208F4077308F53D70
:101688000130F235F30D890B452B0130F136F00CA2
:10169800890B4A2B71087004031D532B542B3C2BC8
:1016A800552B7508F101F1077408F001F0075C2B60
:1016B8000800F501F50A602B893127218B31F400E8
:1016C8007408F60076080D3A03196B2B6C2B772BF0
:1016D80076080A3A031D712B722B742B772B772B04
:1016E800F501602B602BF508031D7B2B7C2B7E2BD3
:1016F8000310812B0314812B812B080020005B1C15
:10170800862B872B892B22008D152000DB1C8D2B27
:101718008E2B912B22000E14912B0630F000F00B2B
:10172800932B000020005B1C9A2B9B2B9D2B2200E7
:101738008D112000DB1CA12BA22BA52B22000E1043
:10174800A52B1A30F000F00BA72B00000800F201BF
:10175800F20A21000C1422008C100630F1003030FF
:10176800F000F00BB52BF10BB52B000020000C1C82
:10177800BE2BBF2BC02BF20122008C140630F100C7
:101788003030F000F00BC62BF10BC62B0000200008
:101798000C18CF2BD02BD12BF20121000C10720C7E
:1017A800D52B0800F40022008D120D127408803128
:1017B800E7208B317408013A0319E32BE42BEA2B59
:1017C8007408023A031DE92BEA2BF62B2000D301FB
:1017D8000B30F3006230F200F20BF02BF30BF02B1E
:1017E80000000C2CF8307405F2007208083A031D4A
:1017F800FE2BFF2B062C74080739F2007208200014
:10180800D4000C2C2130F200F20B082C0C2C0C2CE0
:10181800080020002608F0002708F100890D893B00
:101828008909F200F3000030F700F430F6002430A4
:10183800F5000030F400823105228C317308FC0079
:101848007208FB007108FA007008F9000030F30014
:101858000030F2000030F1001030F0007C08F70092
:101868007B08F6007A08F5007908F4008231052231
:101878008C317008FF3E23009B009F111E151E121D
:101888009D179E161D1664008A3131228C3108007E
:101898008B132100191799161916991597121716EF
:1018A800971117159710640023008C018D011830CB
:1018B8008E00603021008C00C0308D00FE308E001C
:1018C80022008C018D018E010F3020009B00250025
:1018D800931513159310131020001B082500910071
:1018E8009A161A169A151A159A101A1098019A1219
:1018F8001A12200091109C101C101C15832C911C8E
:10190800862C872C832C21008E100E110800FD01D7
:101918002000A71F902C912C992CA609A709A60A8C
:101928000319A70AFD01FD0A992CA51F9C2C9D2CC3
:10193800A32CA409A509A40A0319A50AA32C250800
:1019480024040319A82CA92CD82CFC01FC0AB62CB9
:101958000130A435A50D890BAD2C0130FB007B08A7
:10196800FC07B62CA51FB92CBA2CAC2CBC2CBC2C53
:1019780025082702031DC22C24082602031CC52C97
:10198800C62CCB2C2408A6022508A73BCB2C01305B
:10199800A536A40C890BCC2C0130FC02031DD52CD8
:1019A800D62CBC2CD82CD82C7D08031DDC2CE22C82
:1019B800A609A709A60A0319A70AE22C2708A50160
:1019C800A5072608A401A407E92C0800F80003309D
:1019D800F60076082000DB008931D8218C313430BC
:1019E800F700F130F600F60BF72CF70BF72CFC2C70
:1019F8008931D8218C310630F7003030F600F60BEB
:101A0800032DF70B032D00008931D8218C310630C6
:101A1800F7003030F600F60B0F2DF70B0F2D0000F6
:101A280078088A31D6228C317808043A031D1D2D96
:101A38001E2D232D28308B31D6238C31272D38307D
:101A48008B31D6238C3108308B31D6238C31013041
:101A58008B31D6238C3106308B31D6238C31143020
:101A68008B31D6238C3102308B31D6238C310C301C
:101A78008B31D6238C312000D3017508F600760807
:101A8800D90089315C218C3108002000A101F71FA1
:101A98004E2D4F2D572DF609F709F60A0319F70AA7
:101AA800A101A10A572DF91F5A2D5B2D652DF809A3
:101AB800F909F80A0319F90A0130FA007A08A106A7
:101AC800652DA201A3017708760403196C2D6D2DED
:101AD800A22DA001A00A7A2D0130F635F70D890B49
:101AE800712D0130FA007A08A0077A2DF71F7D2D95
:101AF8007E2D702D802D802D0130A235A30D890BF0
:101B0800812D77087902031D8B2D76087802031C36
:101B18008E2D8F2D952D7608F8027708F93B221423
:101B2800952D0130F736F60C890B962D0130A00261
:101B3800031D9F2DA02D802DA22DA22D2108031D50
:101B4800A62DAC2DA209A309A20A0319A30AAC2D3C
:101B58002308F701F7072208F601F607B32D080056
:101B680010302000AD002730AE00AC01AC0A092EC1
:101B78000A302000A4000030A5002E08F701F7075E
:101B88002D08F601F6072908F901F9072808F801D0
:101B9800F8078D3149258D3177082000A701A7075F
:101BA8007608A601A6078C318B248D3120002508E4
:101BB800AB01AB072408AA01AA072B082A04031DB6
:101BC800E62DE72DED2D2C08031DEB2DED2DF42D25
:101BD800F42D2A08303E89312C218D312000AC01AA
:101BE8000A30F6000030F7002E08F901F9072D0831
:101BF800F801F8078D3149258D3177082000AE01AD
:101C0800AE077608AD01AD07092E2E08803AFF0011
:101C180080307F02031D122E01302D020318152E6D
:101C2800162EBC2D172E20002C08031D1C2E212E2D
:101C3800303089312C218D31212E08000130F800F7
:101C480078082000D3070430530203182C2E2D2EB9
:101C58008F2E5908023A031D322E332E812E5A2E0A
:101C68005A2EDB01DB0A4030893155218E310314AD
:101C7800962E962E0230F80078082000DB000030FF
:101C8800893155218E310314962E962E0230F80094
:101C980078082000DB004030893155218E3103144B
:101CA800962E962E0310962E962E962E20005308CA
:101CB800013A0319352E033A03193E2E013A031946
:101CC8004A2E562E962E812E4030893155218E313E
:101CD8000314962E962E1430893155218E31031413
:101CE800962E962E5430893155218E310314962E16
:101CF800962E0310962E962E962E20005308013A03
:101D08000319682E033A03196F2E013A0319762E28
:101D18007D2E962E962E0430F8007808D3000310F6
:101D2800962E962E08002000AC003F30F8000030B8
:101D3800F9001B08A400A5012408F6002508F700EF
:101D48008D3149258E3177082000A901A907760829
:101D5800A801A807FF30F2000030F3002C08A40007
:101D6800A501A409A509A40A0319A50A2408643E23
:101D7800F0000030253DF1008B3139238E31710898
:101D8800F901F9077008F801F8076430F600003027
:101D9800F7008D3149258E3176082000A600A7016D
:101DA8002608AA002708AB002908F701F707280822
:101DB800F601F6072B08F901F9072A08F801F807D0
:101DC8008D3149258E3176082000A4002408AD0005
:101DD8002D18EF2EF22E25001A16F42E25001A12B1
:101DE80020002D08A4000130A436890BF82E2418F1
:101DF800FE2E012F25009A16032F25009A12200087
:101E08002D08A4000230A436890B072F24082500CA
:101E1800980008002000AC003F30F8000030F900BE
:101E28001B08A400A5012408F6002508F7008D3139
:101E380049258F3177082000A901A9077608A8014C
:101E4800A807FF30F2000030F3002C08A400A50119
:101E5800A409A509A40A0319A50A2408643EF000E8
:101E68000030253DF1008B3139238F317108F9019C
:101E7800F9077008F801F8076430F6000030F70039
:101E88008D3149258F3176082000A600A701260844
:101E9800AA002708AB002908F701F7072808F60168
:101EA800F6072B08F901F9072A08F801F8078D3118
:101EB80049258F3176082000A4002408AD002D188C
:101EC800662F692F250013166B2F2500131220008B
:101ED8002D08A4000130A436890B6F2F2418752F04
:101EE800782F250093167A2F2500931220002D08AD
:101EF800A4000230A436890B7E2F24082500910007
:101F080008002000AC006430F6000030F7002C0810
:101F1800A800A9012808F8002908F9008D314925E9
:101F28008F3176082000AA002A08AB000A30A400E6
:101F38000030A5000A30F6000030F7002C08A80091
:101F4800A9012808F8002908F9008D3149258F31A1
:101F580077082000A701A7077608A601A6078C31F5
:101F68008B248F3120002408AA002A08AD000A30EB
:101F7800A4000030A5002C08A800A9012808A60084
:101F88002908A7008C318B248F3120002408AA004F
:101F98002A08AE00AB08031DD22FD32FEC2FAD08B3
:101FA800031DD72FD82FDE2F2E08303E89312C2144
:101FB8008F31FF2F20002D08303E89312C218F31A1
:101FC80020002E08303E89312C218F31FF2FFF2F22
:101FD80020002B08303E89312C218F3120002D081C
:101FE800303E89312C218F3120002E08303E893136
:081FF8002C218F31FF2F08009E
:1030000032340034083401340034003400340034E5
:103010000034003400340034003400340034003410
:103020000034003400340034003400340034003400
:1030300000340034003400340034003400340034F0
:10320000003445346C3473346934643469342034A4
:103210004C34203432343034313433342D3430347F
:1032200031342D343234353400340034773477344B
:1032300077342E346A346D346534643476346534CE
:1032400064342E3463346F346D34003400344534C8
:0E3250006C34733469346434693400340034EF
:020000040001F9
:04000E009CEFEFD3A1
:00000001FF
