:08000000803102288A31BA2A7E
:10000A0080302000A6002530A7008C31782480316A
:10001A0008002000AC006430F6000030F7002C081D
:10002A00A800A9012808F8002908F9008D31C4257B
:10003A00803176082000AA002A08AB000A30A40002
:10004A000030A5000A30F6000030F7002C08A8009E
:10005A00A9012808F8002908F9008D31C425803142
:10006A0077082000A701A7077608A601A6078D3101
:10007A000625803120002408AA002A08AD000A308B
:10008A00A4000030A5002C08A800A9012808A60091
:10009A002908A7008D310625803120002408AA00EE
:1000AA002A08AE00AB08031D5B285C287528AD083A
:1000BA00031D6028612867282E08303E89315B219C
:1000CA008031882820002D08303E89315B2180311B
:1000DA0020002E08303E89315B218031882888280B
:1000EA0020002B08303E89315B21803120002D0809
:1000FA00303E89315B21803120002E08303E893123
:10010A005B21803188280800F7007408860087017F
:10011A008101F901F90AFA019228893156218031BF
:10012A00F5007508FB007B080D3A03199D289E28E7
:10013A00F2287B080A3A031DA328A428A628F22835
:10014A00F2287408860087010108FF3A0319AE28CD
:10015A00AF28B7280130F5007408860087017508B2
:10016A008107B7287908031DBB28EE2830307B02A7
:10017A00031CC028C128EE283A307B020318C6287F
:10018A00C728EE287B08D03EF5007508F8000A302B
:10019A007A02031CD128D228DE287A080A3A031DDB
:1001AA00D728D828EB28F808031DDC28DD28EB28F7
:1001BA00DE280A30F5007508F0007A088A31A12293
:1001CA0080317807F6007608FA009228F901922819
:1001DA009228F9019228922892287908031DF62874
:1001EA000B297408860087010108003A0319FE28C2
:1001FA00FF2807297A08F50077088600870175081D
:10020A008100072903140E290E290E2903100E292D
:10021A000E290800F10020005808043A031D162987
:10022A0017295C29F11F1A291B291E2922000D15DD
:10023A00202922000D11711F2329242926298D1412
:10024A0027298D10F11E2A292B292D290D142E2933
:10025A000D10711E3129322934290C1636290C1237
:10026A0036298B31B4238131F11D3C293D2940299E
:10027A0022000D15422922000D11711D452946291A
:10028A0048298D1449298D10F11C4C294D294F29D3
:10029A000D1450290D10711C5329542956290C1676
:1002AA0058290C1258298B31B42381319B29F11F0B
:1002BA005F296029632922000D15652922000D1185
:1002CA00711F682969296B298D146C298D10F11EFB
:1002DA006F29702972290D1473290D10711E762940
:1002EA00772979290C167A290C12F11D7D297E2984
:1002FA0080298C1581298C11711D842985298729CA
:10030A000C1588290C11F11C8B298C298E298C1427
:10031A008F298C10711C9229932995290C149729DD
:10032A000C1097298B31B42381319B2908002000B6
:10033A005008F7004F08F6004E08F5004D08F40083
:10034A00F801F9017908803AFF0080307F02031D25
:10035A00B02904307802031CB329B429B629D62956
:10036A00D6290030780784009830793D8500000846
:10037A00F3007808743E8600870173088100013013
:10038A00F8070030F93D7908803AFF0080307F0293
:10039A00031DD12904307802031CD429D529B62992
:1003AA00D6297208F3007008743E86008701730824
:1003BA0081008B1323001515151300309100183096
:1003CA0092001516230055309600AA30960095140F
:1003DA000000000023009512FA01FB017B08803A15
:1003EA00FF0080307F02031DFC2904307A02031CBF
:1003FA00FF29002A022A292A292A7A08003E2300EC
:10040A00910018307B3D920094017A08743E860070
:10041A00870101089300230055309600AA30960000
:10042A009514000000000130FA070030FB3D7B08FC
:10043A00803AFF0080307F02031D252A04307A02A9
:10044A00031C282A292A022A230015118B170800BF
:10045A002000A101F31F322A332A402AF009F109A8
:10046A00F209F309F00A0319F10A0319F20A031946
:10047A00F30AA101A10AF71F432A442A542AF409BC
:10048A00F509F609F709F40A0319F50A0319F60A30
:10049A000319F70A0130F8007808A106542A003037
:1004AA00A5000030A4000030A3000030A2007308A9
:1004BA007204710470040319632A642AAB2AA00126
:1004CA00A00A732A0130F035F10DF20DF30D890BF4
:1004DA00682A0130F8007808A007732AF31F762AE1
:1004EA00772A672A792A792A0130A235A30DA40D21
:1004FA00A50D890B7A2A73087702031D8E2A7208C2
:10050A007602031D8E2A71087502031D8E2A700851
:10051A007402031C912A922A9C2A7008F402710818
:10052A00F53B7208F63B7308F73B22149C2A01300C
:10053A00F336F20CF10CF00C890B9D2A0130A00263
:10054A00031DA82AA92A792AAB2AAB2A2108031D46
:10055A00AF2ABB2AA209A309A409A509A20A031959
:10056A00A30A0319A40A0319A50ABB2A2508F3003A
:10057A002408F2002308F1002208F000C42A080027
:10058A008C313F24823122008C178B31DD2382315A
:10059A00031CD02AD12AF62A8C31B7248231D52AD3
:1005AA0022008C1303302000C9000830C8007830BC
:1005BA00C700C70BDE2AC80BDE2AC90BDE2A2200B7
:1005CA008C1703302000C9000830C8007830C700F3
:1005DA00C70BED2AC80BED2AC90BED2AD52AD52A55
:1005EA00F62A8B31492382318031052082318A31C2
:1005FA00512282312000C7004708F9008A313E2281
:10060A0082318A318A2282312000CB01CC011D2B12
:10061A0027304B07840099304C3D8500000889310A
:10062A009321823101302000CB070030CC3D1D2BB5
:10063A0027304B07840099304C3D8500000800386C
:10064A00031D282B292B0D2B2A2BCB01CC01403043
:10065A00F6000030F7008E319D268231452B163088
:10066A0020004B07840099304C3D850000088931F1
:10067A009321823101302000CB070030CC3D452B3D
:10068A00163020004B07840099304C3D8500000845
:10069A000038031D512B522B342B532B8A311A222B
:1006AA0082318F31892782318A312C2282318F31EE
:1006BA001227823115302000C9004B30C800D130D2
:1006CA00C700C70B662BC80B662BC90B662B00002D
:1006DA008A31512282312000C7004708F5008A3149
:1006EA003E2282318D316525823122008C137D2B89
:1006FA008931562182312000C7004708CA002200EA
:10070A008C1720004A0884319024823122008C13ED
:10071A007D2B7D2B80310228F90074088600870121
:10072A008101F801982B893156218331F50075082A
:10073A00FA007A080D3A0319A32BA42B842C7A0801
:10074A000A3A031DA92BAA2BAC2B842C842C7408DF
:10075A00860087010108FF3A0319B42BB52BBD2B7C
:10076A000130F50074088600870175088107BD2BE2
:10077A00F808031DC12BC22B772C30307A02031CD8
:10078A00C72BC82BD52B3A307A020318CD2BCE2B88
:10079A00D52B7908860087018101F801F80A772CA0
:1007AA007A082B3A031DDA2BDB2BE02B0230F500FB
:1007BA007508F800772C7A082D3A031DE52BE62BED
:1007CA00EB2B0330F5007508F800772CFF30F500A5
:1007DA007508F800772C772C772C772C772C30300B
:1007EA007A02031CF92BFA2B362C3A307A020318B8
:1007FA00FF2B002C362C7A08D03EF5007508F7003E
:10080A007908860087010A300102031C0D2C0E2C80
:10081A001D2C79088600870101080A3A031D162C47
:10082A00172C302CF708031D1B2C1C2C302C1D2CCC
:10083A000A30F5007508F00079088600870101087A
:10084A008A31A12283317707F60079088600870169
:10085A0076088100982BFF30F5007508F800982B70
:10086A00982BFF30F5007508F800982B982B7A081A
:10087A002B3A031D412C422C542C790886008701FF
:10088A006430010203184A2C4B2C982B0130F500D6
:10089A0079088600870175088107982B982BFF3005
:1008AA00F5007508F800982B982B7A082D3A031D45
:1008BA005F2C602C702C7908860087010108003AA9
:1008CA000319682C692C982B790886008701013056
:1008DA008102982B982BFF30F5007508F800982BA9
:1008EA00982B982B7808013A0319F42B033A031929
:1008FA003C2C013A03195A2C982B982B982B7808E0
:10090A00FF3A031D892C8A2C8C2C03108F2C03147C
:10091A008F2C8F2C08002000C600EC2F89318B21E8
:10092A0084310A302000AF002F08C600FA2F89311F
:10093A00562184312000AF002F08C300722FA52C46
:10094A008931FE2184310A302000AF002F08C60009
:10095A00FA2F8B318F238431031CB42CB52CFA2F38
:10096A002000B801B901C92C013038078400993038
:10097A00393D8500000889315B218431013020002E
:10098A00B8070030B93DC92C0130380784009930C6
:10099A00393D850000080038031DD42CD52CB92C0C
:1009AA00D62C0A30AF002F08C600FA2FFA2F8B3147
:1009BA008F238431031CE22CE32CFA2F8B31492339
:1009CA0084318A312C2284318F31122784318A3141
:1009DA001A2284318F31892784318A315122843114
:1009EA002000AF002F08F5008A313E2284318D3174
:1009FA00652584310A302000AF002F08C600FA2F7F
:100A0A00FA2F8931562184312000AF002F08BE0009
:100A1A003E080D3A0319122D132D1A2D3E080A3AD3
:100A2A00031D182D192D372D1A2D8931B221843124
:100A3A000318202D212D272D2D302000B100003044
:100A4A00B2002D2D2B302000B1000030B2002D2D28
:100A5A00310889315B2184310A302000AF002F0828
:100A6A00C600FA2F8B318F238431031C3D2D3E2D76
:100A7A00FA2F20003E082B3A031D442D452D4F2DF9
:100A8A0001308A31D32284310A302000AF002F0886
:100A9A00C600FA2F3E082D3A031D542D552DFA2F64
:100AAA0000308A31D32284310A302000AF002F0867
:100ABA00C600FA2FFA2FFA2FFA2FFA2F8931562168
:100ACA0084312000AF002F08BF003F080D3A0319F8
:100ADA006F2D702D772D3F080A3A031D752D762D3F
:100AEA00942D772D8931A721843103187D2D7E2DF0
:100AFA00842D2D302000B3000030B4008A2D2B3015
:100B0A002000B3000030B4008A2D330889315B21FC
:100B1A0084310A302000AF002F08C600FA2F8B312B
:100B2A008F238431031C9A2D9B2DFA2F20003F0816
:100B3A002B3A031DA12DA22DAC2D01308A31EE22B4
:100B4A0084310A302000AF002F08C600FA2F3F0870
:100B5A002D3A031DB12DB22DFA2F00308A31EE2223
:100B6A0084310A302000AF002F08C600FA2FFA2F6E
:100B7A00FA2FFA2FFA2F8931562184312000AF003B
:100B8A002F08C00040080D3A0319CC2DCD2DD42DC5
:100B9A0040080A3A031DD22DD32DF12DD42D8931C7
:100BAA009C2184310318DA2DDB2DE12D2D30200014
:100BBA00B5000030B600E72D2B302000B50000301C
:100BCA00B600E72D350889315B2184310A302000CF
:100BDA00AF002F08C600FA2F8B318F238431031CF4
:100BEA00F72DF82DFA2F200040082B3A031DFE2D71
:100BFA00FF2D092E01308A31772284310A302000F4
:100C0A00AF002F08C600FA2F40082D3A031D0E2EFA
:100C1A000F2EFA2F00308A31772284310A302000D1
:100C2A00AF002F08C600FA2FFA2FFA2FFA2FFA2F41
:100C3A001E2E8A312C2284312000AF002F08C400D6
:100C4A003A30AF002F08F4004430833191238431C5
:100C5A00031C302E312EFA2F2000BA08031D362E1F
:100C6A00372E3C2E440880310E208431472E200036
:100C7A0044088F31122784312000440889316121C8
:100C8A008431472E0A302000AF002F08C6004308DF
:100C9A00423A031D512E522EFA2F8931CA2184312C
:100CAA00FA2FFA2FFA2F592E8A311A22843120006C
:100CBA00AF002F08C5003B30AF002F08F4004530C5
:100CCA00833191238431031C6B2E6C2EFA2F200062
:100CDA00BB08031D712E722E772E450880310E2017
:100CEA008431822E200045088F31892784312000E3
:100CFA004508893168218431822E0A302000AF00EC
:100D0A002F08C6004308433A031D8C2E8D2EFA2F56
:100D1A008931D7218431FA2FFA2FFA2F942E8A316A
:100D2A00512284312000AF002F08C1003C30AF00AF
:100D3A002F08F4004130803189208431031CA62E0B
:100D4A00A72EFA2F2000BC08031DAC2EAD2EBD2EF7
:100D5A004108AF00B0012F08A8003008A9008E3161
:100D6A002F2684310A302000AF002F08C600DF2E5C
:100D7A004108013A031DC22EC32ECD2E01308931FE
:100D8A006F2184310A302000AF002F08C600DF2E01
:100D9A004108023A031DD22ED32EDF2E02308931AA
:100DAA00762184310A302000AF002F08C600DF2EDA
:100DBA00DF2EDF2E46080A3A031DE42EE52EFA2F0F
:100DCA008A31512284312000AF002F08F5008A3180
:100DDA003E2284318D316525843120004308443A0E
:100DEA00031DF82EF92EFA2F8931E4218431FA2FC6
:100DFA00FA2FFA2FFA2F012F8A313E22843120004E
:100E0A00AF002F08C2003D30AF002F08F400423077
:100E1A00803189208431031C132F142FFA2F2000CC
:100E2A00BD08031D192F1A2F2A2F4208AF00B0013F
:100E3A002F08A8003008A9008E312F2684310A30E5
:100E4A002000AF002F08C6004C2F4208043A031DA9
:100E5A002F2F302F3A2F043089316F2184310A30F5
:100E6A002000AF002F08C6004C2F4208083A031D85
:100E7A003F2F402F4C2F083089316F2184310A309F
:100E8A002000AF002F08C6004C2F4C2F4C2F4608CD
:100E9A000A3A031D512F522FFA2F8A3151228431D7
:100EAA002000AF002F08F5008A313E2284318D31AF
:100EBA006525843120004308493A031D652F662FB2
:100ECA00FA2F8931F1218431FA2FFA2FFA2FFA2FCA
:100EDA008B318F238431FA2FFA2F200043080A3AE4
:100EEA000319A52C073A0319A52C2C3A0319C02D6E
:100EFA00053A0319632D0E3A0319062D153A0319FB
:100F0A00AE2C7D3A03191E2E013A0319592E073ABF
:100F1A000319942E0D3A0319012F2B3A03191E2E89
:100F2A00013A0319592E073A0319942E0D3A031957
:100F3A00012F173A0319DC2C6D2FFA2FA42F8E31AB
:100F4A009D268431031CAA2FAB2FB12F0A30200013
:100F5A00AF002F08C600FA2F0D302000AF002F086F
:100F6A00C600FA2FFA2F8931FE2184310A30200077
:100F7A00AF002F08C600FA2F89315621843120008C
:100F8A00AF002F08B70037088C31082484310A30A3
:100F9A002000AF002F08C600FA2F023089317D21C8
:100FAA0084310A302000AF002F08C600FA2F013022
:100FBA0089317D2184310A302000AF002F08C60014
:100FCA00FA2F4608893193218431FA2FFA2F20000B
:100FDA004608F83E031CE62F840008300402031872
:100FEA00E62F88310435003E820020004608893108
:100FFA005B21843108008431932C84319C2C873105
:10100A00A42F8731B82F8731C12F8731A42F873179
:06101A00D22F8731DC2F0C
:1012A6000134083401348B31272389315A29080047
:1012B600F10071088931BD2189310800F1007108FA
:1012C600F00070082000D3000800F1007108F0005B
:1012D60070082000D4000800F1007108F0007008C2
:1012E6002000D6000800F1007108F0007008200008
:1012F600D5000800F1007108F00070082000D90040
:101306000800F500750880388C31082489310800FA
:101316002000D901D90A02308C310824893108000D
:10132600F20022008D160D12720881310F218931CB
:10133600080020005218A029A129A3290310A629D4
:101346000314A629A62908002000D218AB29AC2927
:10135600AE290310B1290314B129B12908002000D0
:101366005219B629B729B9290310BC290314BC2977
:10137600BC290800F000C02964002000111EC42901
:10138600C529BF29C629700823009A000800013024
:10139600F0000030F10020005308FC007C08F20049
:1013A60081319C21893108000030F0000030F100C5
:1013B60020005408FC007C08F20081319C21893110
:1013C60008000330F0000030F10020005508FC0052
:1013D6007C08F20081319C21893108000230F0003E
:1013E6000030F10020005608FC007C08F200813134
:1013F6009C21893108000330F50075082000D900CA
:1014060001308C31082489312000D901D90A08001D
:1014160022008D120D120D118D100D140C168C114B
:101426000C118C100C108B31B4238A31080020006B
:101436005408F0007008F10065307102031C242A7C
:10144600252A292A6430F0007008F10071082B2A39
:10145600080020005308F0007008F10065307102A2
:10146600031C362A372A3B2A6430F0007008F10044
:1014760071083D2A080020005608043A0319442A38
:10148600452A4A2A0830F0000030F1004E2A04307E
:10149600F0000030F1007008502A080020005508BE
:1014A600023A0319572A582A5D2A0130F000003003
:1014B600F100612A0230F0000030F1007008632A62
:1014C600080023001D121D161908F0007008F1000F
:1014D6001908F0007008F1001908F0007008F10012
:1014E6009D139D1764000800F7000030F708031DE0
:1014F6000130F5002000520806397504F60076081A
:10150600F800780808388C3108248A310800FD0074
:101516000230FC000430FB00BA30FA00FA0B912AC4
:10152600FB0B912AFC0B912A00007908FA007A0835
:10153600F5007D088D3165258A310800F300F2013A
:10154600A42A731CA72AA82AAD2A7008F1007108DC
:10155600F207AD2A0310F00D0310F30CF308031D78
:10156600B52AB62AA42AB72A7208B92A0800CD01D4
:10157600CE01CF01D001D101D201D301D401D501D1
:10158600D601893153218A31D700893154218A31D4
:10159600D800893155218A31D90020008231C52AE7
:1015A600F600F608031DD82AD92ADC2AF701F80125
:1015B600E12A0430F7000030F800E12A2000520842
:1015C60003397704F5007508F900790808388C3175
:1015D60008248A310800F600F608031DF32AF42AC7
:1015E600F72AF701F801FC2A0230F7000030F8006C
:1015F600FC2A2000520805397704F5007508F90021
:10160600790808388C3108248A310800F200220053
:101616008D120D120D118D100D147208043A031D52
:10162600152B182B22000C161A2B22000C128C11CB
:101636000C118C100C108B31B4238B317208F10015
:1016460071082000D800080023001D1D2B2B2C2B11
:10165600302B8A3164228B31302B23009D1C342B96
:10166600352B3B2B8A3164228B313B2B3B2B640081
:101676002000911E3F2B402B3A2B412B23001908AB
:10168600F2007208F3007308482B0800003084004B
:10169600983085000008F00070082000D400013062
:1016A6008400983085000008F0007008D3000230EE
:1016B6008400983085000008F0007008D6000330DA
:1016C6008400983085000008F0007008D5000800F6
:1016D600F401F5016E2B701C712B722B762B7208A0
:1016E600F4077308F53D0130F235F30D890B772BBE
:1016F6000130F136F00C890B7C2B71087004031D48
:10170600852B862B6E2B872B7508F101F107740844
:10171600F001F0078E2B0800F501F50A922B8931AE
:1017260056218B31F4007408F60076080D3A031939
:101736009D2B9E2BA92B76080A3A031DA32BA42BBF
:10174600A62BA92BA92BF501922B922BF508031D8D
:10175600AD2BAE2BB02B0310B32B0314B32BB32B33
:1017660008002000591CB82BB92BBB2B22008D1565
:101776002000D91CBF2BC02BC32B22000E14C32B59
:101786000630F000F00BC52B00002000591CCC2BB6
:10179600CD2BCF2B22008D112000D91CD32BD42B7F
:1017A600D72B22000E10D72B1A30F000F00BD92BB6
:1017B60000000800F201F20A21000C1422008C102D
:1017C6000630F1003030F000F00BE72BF10BE72B81
:1017D600000020000C1CF02BF12BF22BF201220052
:1017E6008C140630F1003030F000F00BF82BF10BC2
:1017F600F82B000020000C18012C022C032CF201FF
:1018060021000C10720C072C0800F40022008D1227
:101816000D12740881310F218C317408013A0319B5
:10182600152C162C1C2C7408023A031D1B2C1C2C80
:10183600282C2000D1010B30F3006230F200F20BAD
:10184600222CF30B222C00003E2CF8307405F200FB
:101856007208083A031D302C312C382C74080739CD
:10186600F20072082000D2003E2C2130F200F20B6A
:101876003A2C3E2C3E2C08008B1321001917991682
:101886001916991523008C018D0118308E006030D1
:1018960021008C00C0308D00FE308E0022008C01AD
:1018A6008D018E010F3020009B0025009315131526
:1018B6009310131020001B08250091009A161A1683
:1018C6009A151A159A101A1098019A121A122000CF
:1018D60091109C101C101C15702C911C732C742CD0
:1018E600702C21008E100E11080020002608F00032
:1018F6002708F100890D893B8909F200F3000030C1
:10190600F700F430F6002430F5000030F4008231A0
:101916002D228C317308FC007208FB007108FA0056
:101926007008F9000030F3000030F2000030F100DA
:101936001030F0007C08F7007B08F6007A08F50006
:101946007908F40082312D228C317008FF3E230085
:101956009B009F111E151E129D179E161D166400D4
:101966008A3164228C3108000130893161218C3141
:101976008931CA218C313230893168218C318931E3
:10198600D7218C31083089316F218C318931F12191
:101996008C310130893176218C318931E4218C31C9
:1019A600F901F90A04308A318A228C3144308931AE
:1019B60093218C314530893193218C3146308931E0
:1019C60093218C314130893193218C3155308931C5
:1019D60093218C314C30893193218C3154308931AB
:1019E60093218C315330893193218C318A312C22C9
:1019F6008C318F3112278C318A311A228C318F31FA
:101A060089278C310800FD012000A71F0B2D0C2D06
:101A1600142DA609A709A60A0319A70AFD01FD0A9E
:101A2600142DA51F172D182D1E2DA409A509A40ACE
:101A36000319A50A1E2D250824040319232D242D78
:101A4600532DFC01FC0A312D0130A435A50D890B5F
:101A5600282D0130FB007B08FC07312DA51F342DF6
:101A6600352D272D372D372D25082702031D3D2D12
:101A760024082602031C402D412D462D2408A602CB
:101A86002508A73B462D0130A536A40C890B472D0A
:101A96000130FC02031D502D512D372D532D532D92
:101AA6007D08031D572D5D2DA609A709A60A031952
:101AB600A70A5D2D2708A501A5072608A401A407E6
:101AC600642D0800F8000330F60076082000D900DF
:101AD6008A310B228D313430F700F130F600F60BE7
:101AE600722DF70B722D772D8A310B228D31063030
:101AF600F7003030F600F60B7E2DF70B7E2D00003A
:101B06008A310B228D310630F7003030F600F60BA5
:101B16008A2DF70B8A2D000078088B3109238D3129
:101B26007808043A031D982D992D9E2D28308C3166
:101B360008248D31A22D38308C3108248D3108309F
:101B46008C3108248D3101308C3108248D310630DA
:101B56008C3108248D3114308C3108248D310230BB
:101B66008C3108248D310C308C3108248D312000C5
:101B7600D1017508F6007608D70089318B218D31A1
:101B860008002000A101F71FC92DCA2DD22DF60984
:101B9600F709F60A0319F70AA101A10AD22DF91FBE
:101BA600D52DD62DE02DF809F909F80A0319F90AF9
:101BB6000130FA007A08A106E02DA201A3017708F8
:101BC60076040319E72DE82D1D2EA001A00AF52D98
:101BD6000130F635F70D890BEC2D0130FA007A0845
:101BE600A007F52DF71FF82DF92DEB2DFB2DFB2D5D
:101BF6000130A235A30D890BFC2D77087902031D50
:101C0600062E76087802031C092E0A2E102E760858
:101C1600F8027708F93B2214102E0130F736F60C3D
:101C2600890B112E0130A002031D1A2E1B2EFB2D2F
:101C36001D2E1D2E2108031D212E272EA209A309C4
:101C4600A20A0319A30A272E2308F701F707220879
:101C5600F601F6072E2E080010302000AD002730C2
:101C6600AE00AC01AC0A842E0A302000A40000307D
:101C7600A5002E08F701F7072D08F601F607290833
:101C8600F901F9072808F801F8078D31C4258E31C6
:101C960077082000A701A7077608A601A6078D31B9
:101CA60006258E3120002508AB01AB072408AA01C2
:101CB600AA072B082A04031D612E622E682E2C0803
:101CC600031D662E682E6F2E6F2E2A08303E893130
:101CD6005B218E312000AC010A30F6000030F7009F
:101CE6002E08F901F9072D08F801F8078D31C425EA
:101CF6008E3177082000AE01AE077608AD01AD073C
:101D0600842E2E08803AFF0080307F02031D8D2E20
:101D160001302D020318902E912E372E922E200080
:101D26002C08031D972E9C2E303089315B218E3175
:101D36009C2E08000130F80078082000D1070430F6
:101D460051020318A72EA82E0A2F5708023A031D80
:101D5600AD2EAE2EFC2ED52ED52ED901D90A403069
:101D6600893184218E310314112F112F0230F8008E
:101D760078082000D9000030893184218E3103147F
:101D8600112F112F0230F80078082000D9004030BA
:101D9600893184218E310314112F112F0310112F35
:101DA600112F112F20005108013A0319B02E033AC2
:101DB6000319B92E013A0319C52ED12E112FFC2E67
:101DC6004030893184218E310314112F112F1430A4
:101DD600893184218E310314112F112F543089310A
:101DE60084218E310314112F112F0310112F112F5F
:101DF600112F20005108013A0319E32E033A031963
:101E0600EA2E013A0319F12EF82E112F112F043064
:101E1600F8007808D1000310112F112F08002000B8
:101E2600AC003F30F8000030F9001B08A400A50103
:101E36002408F6002508F7008D31C4258F31770870
:101E46002000A901A9077608A801A807FF30F2001B
:101E56000030F3002C08A400A501A409A509A40AD2
:101E66000319A50A2408643EF0000030253DF10060
:101E76008B316B238F317108F901F9077008F8016E
:101E8600F8076430F6000030F7008D31C4258F3135
:101E960076082000A600A7012608AA002708AB009E
:101EA6002908F701F7072808F601F6072B08F901B4
:101EB600F9072A08F801F8078D31C4258F3176080D
:101EC6002000A4002408AD002D186A2F6D2F2500D0
:101ED60013166F2F2500131220002D08A4000130C1
:101EE600A436890B732F2418792F7C2F250093167F
:101EF6007E2F2500931220002D08A4000230A43660
:101F0600890B822F24082500910008002000AC00D0
:101F16003F30F8000030F9001B08A400A501240892
:101F2600F6002508F7008D31C4258F31770820008B
:101F3600A901A9077608A801A807FF30F20000301A
:101F4600F3002C08A400A501A409A509A40A0319F5
:101F5600A50A2408643EF0000030253DF1008B31CF
:101F66006B238F317108F901F9077008F801F8073A
:101F76006430F6000030F7008D31C4258F317608C5
:101F86002000A600A7012608AA002708AB002908FA
:101F9600F701F7072808F601F6072B08F901F907F4
:101FA6002A08F801F8078D31C4258F3176082000FC
:101FB600A4002408AD002D18E12FE42F25001A16E1
:101FC600E62F25001A1220002D08A4000130A436A1
:101FD600890BEA2F2418F02FF32F25009A16F52FD8
:101FE60025009A1220002D08A4000230A436890B81
:0A1FF600F92F2408250098000800C8
:1030000032340034083401340034003400340034E5
:103010000034003400340034003400340034003410
:103020000034003400340034003400340034003400
:1030300000340034003400340034003400340034F0
:10320000003445346C3473346934643469342034A4
:103210004C34203432343034313433342D3430347F
:1032200031342D343234353400340034773477344B
:1032300077342E346A346D346534643476346534CE
:1032400064342E3463346F346D34003400344534C8
:0E3250006C34733469346434693400340034EF
:020000040001F9
:04000E0084EFEFD3B9
:00000001FF
