:08000000803102288A31A42A94
:10000A0080302000A6002530A7008C316D24803175
:10001A0008002000AC006430F6000030F7002C081D
:10002A00A800A9012808F8002908F9008D31C4257B
:10003A00803176082000AA002A08AB000A30A40002
:10004A000030A5000A30F6000030F7002C08A8009E
:10005A00A9012808F8002908F9008D31C425803142
:10006A0077082000A701A7077608A601A6078C3102
:10007A00FB24803120002408AA002A08AD000A3097
:10008A00A4000030A5002C08A800A9012808A60091
:10009A002908A7008C31FB24803120002408AA00FB
:1000AA002A08AE00AB08031D5B285C287528AD083A
:1000BA00031D6028612867282E08303E89313221C5
:1000CA008031882820002D08303E89313221803144
:1000DA0020002E08303E8931322180318828882834
:1000EA0020002B08303E89313221803120002D0832
:1000FA00303E89313221803120002E08303E89314C
:10010A003221803188280800F700740886008701A8
:10011A008101F901F90AFA01922889312D218031E8
:10012A00F5007508FB007B080D3A03199D289E28E7
:10013A00F2287B080A3A031DA328A428A628F22835
:10014A00F2287408860087010108FF3A0319AE28CD
:10015A00AF28B7280130F5007408860087017508B2
:10016A008107B7287908031DBB28EE2830307B02A7
:10017A00031CC028C128EE283A307B020318C6287F
:10018A00C728EE287B08D03EF5007508F8000A302B
:10019A007A02031CD128D228DE287A080A3A031DDB
:1001AA00D728D828EB28F808031DDC28DD28EB28F7
:1001BA00DE280A30F5007508F0007A088A318B22A9
:1001CA0080317807F6007608FA009228F901922819
:1001DA009228F9019228922892287908031DF62874
:1001EA000B297408860087010108003A0319FE28C2
:1001FA00FF2807297A08F50077088600870175081D
:10020A008100072903140E290E290E2903100E292D
:10021A000E290800F10020005808043A031D162987
:10022A0017295C29F11F1A291B291E2922000D15DD
:10023A00202922000D11711F2329242926298D1412
:10024A0027298D10F11E2A292B292D290D142E2933
:10025A000D10711E3129322934290C1636290C1237
:10026A0036298B31C9238131F11D3C293D29402989
:10027A0022000D15422922000D11711D452946291A
:10028A0048298D1449298D10F11C4C294D294F29D3
:10029A000D1450290D10711C5329542956290C1676
:1002AA0058290C1258298B31C92381319B29F11FF6
:1002BA005F296029632922000D15652922000D1185
:1002CA00711F682969296B298D146C298D10F11EFB
:1002DA006F29702972290D1473290D10711E762940
:1002EA00772979290C167A290C12F11D7D297E2984
:1002FA0080298C1581298C11711D842985298729CA
:10030A000C1588290C11F11C8B298C298E298C1427
:10031A008F298C10711C9229932995290C149729DD
:10032A000C1097298B31C92381319B2908002000A1
:10033A005008F7004F08F6004E08F5004D08F40083
:10034A00F801F9017908803AFF0080307F02031D25
:10035A00B02904307802031CB329B429B629D62956
:10036A00D6290030780784009830793D8500000846
:10037A00F3007808743E8600870173088100013013
:10038A00F8070030F93D7908803AFF0080307F0293
:10039A00031DD12904307802031CD429D529B62992
:1003AA00D6297208F3007008743E86008701730824
:1003BA0081008B1323001515151300309100183096
:1003CA0092001516230055309600AA30960095140F
:1003DA000000000023009512FA01FB017B08803A15
:1003EA00FF0080307F02031DFC2904307A02031CBF
:1003FA00FF29002A022A292A292A7A08003E2300EC
:10040A00910018307B3D920094017A08743E860070
:10041A00870101089300230055309600AA30960000
:10042A009514000000000130FA070030FB3D7B08FC
:10043A00803AFF0080307F02031D252A04307A02A9
:10044A00031C282A292A022A230015118B170800BF
:10045A002000A101F31F322A332A402AF009F109A8
:10046A00F209F309F00A0319F10A0319F20A031946
:10047A00F30AA101A10AF71F432A442A542AF409BC
:10048A00F509F609F709F40A0319F50A0319F60A30
:10049A000319F70A0130F8007808A106542A003037
:1004AA00A5000030A4000030A3000030A2007308A9
:1004BA007204710470040319632A642AAB2AA00126
:1004CA00A00A732A0130F035F10DF20DF30D890BF4
:1004DA00682A0130F8007808A007732AF31F762AE1
:1004EA00772A672A792A792A0130A235A30DA40D21
:1004FA00A50D890B7A2A73087702031D8E2A7208C2
:10050A007602031D8E2A71087502031D8E2A700851
:10051A007402031C912A922A9C2A7008F402710818
:10052A00F53B7208F63B7308F73B22149C2A01300C
:10053A00F336F20CF10CF00C890B9D2A0130A00263
:10054A00031DA82AA92A792AAB2AAB2A2108031D46
:10055A00AF2ABB2AA209A309A409A509A20A031959
:10056A00A30A0319A40A0319A50ABB2A2508F3003A
:10057A002408F2002308F1002208F000C42A080027
:10058A008C313424823122008C178B319E238231A4
:10059A00031CD02AD12AF62A8C31AC248231D52ADE
:1005AA0022008C1303302000C9000830C8007830BC
:1005BA00C700C70BDE2AC80BDE2AC90BDE2A2200B7
:1005CA008C1703302000C9000830C8007830C700F3
:1005DA00C70BED2AC80BED2AC90BED2AD52AD52A55
:1005EA00F62A8B31332382318031052082318A31D8
:1005FA00132282312000C7004708F9008A310022FD
:10060A0082318A31742282312000CB01CC011D2B28
:10061A0027304B07840099304C3D8500000889310A
:10062A006221823101302000CB070030CC3D1D2BE6
:10063A0027304B07840099304C3D8500000800386C
:10064A00031D282B292B0D2B2A2BCB01CC01403043
:10065A00F6000030F7008E319D268231452B163088
:10066A0020004B07840099304C3D850000088931F1
:10067A006221823101302000CB070030CC3D452B6E
:10068A00163020004B07840099304C3D8500000845
:10069A000038031D512B522B342B532B8931EE2159
:1006AA0082318F31892782318931DC2182318F3140
:1006BA001227823115302000C9004B30C800D130D2
:1006CA00C700C70B662BC80B662BC90B662B00002D
:1006DA008A31132282312000C7004708F5008A3187
:1006EA00002282318D315A25823122008C137D2BD2
:1006FA0089312D2182312000C7004708CA00220013
:10070A008C1720004A0884319024823122008C13ED
:10071A007D2B7D2B80310228F90074088600870121
:10072A008101F801982B89312D218331F500750853
:10073A00FA007A080D3A0319A32BA42B842C7A0801
:10074A000A3A031DA92BAA2BAC2B842C842C7408DF
:10075A00860087010108FF3A0319B42BB52BBD2B7C
:10076A000130F50074088600870175088107BD2BE2
:10077A00F808031DC12BC22B772C30307A02031CD8
:10078A00C72BC82BD52B3A307A020318CD2BCE2B88
:10079A00D52B7908860087018101F801F80A772CA0
:1007AA007A082B3A031DDA2BDB2BE02B0230F500FB
:1007BA007508F800772C7A082D3A031DE52BE62BED
:1007CA00EB2B0330F5007508F800772CFF30F500A5
:1007DA007508F800772C772C772C772C772C30300B
:1007EA007A02031CF92BFA2B362C3A307A020318B8
:1007FA00FF2B002C362C7A08D03EF5007508F7003E
:10080A007908860087010A300102031C0D2C0E2C80
:10081A001D2C79088600870101080A3A031D162C47
:10082A00172C302CF708031D1B2C1C2C302C1D2CCC
:10083A000A30F5007508F00079088600870101087A
:10084A008A318B2283317707F6007908860087017F
:10085A0076088100982BFF30F5007508F800982B70
:10086A00982BFF30F5007508F800982B982B7A081A
:10087A002B3A031D412C422C542C790886008701FF
:10088A006430010203184A2C4B2C982B0130F500D6
:10089A0079088600870175088107982B982BFF3005
:1008AA00F5007508F800982B982B7A082D3A031D45
:1008BA005F2C602C702C7908860087010108003AA9
:1008CA000319682C692C982B790886008701013056
:1008DA008102982B982BFF30F5007508F800982BA9
:1008EA00982B982B7808013A0319F42B033A031929
:1008FA003C2C013A03195A2C982B982B982B7808E0
:10090A00FF3A031D892C8A2C8C2C03108F2C03147C
:10091A008F2C8F2C08002000C600EC2F8A314C2225
:10092A0084310A302000AF002F08C600FA2F89311F
:10093A002D2184312000AF002F08C300722FA52C6F
:10094A008A31602284310A302000AF002F08C600A5
:10095A00FA2F8B3179238431031CB42CB52CFA2F4E
:10096A002000B801B901C92C013038078400993038
:10097A00393D850000088931322184310130200057
:10098A00B8070030B93DC92C0130380784009930C6
:10099A00393D850000080038031DD42CD52CB92C0C
:1009AA00D62C0A30AF002F08C600FA2FFA2F8B3147
:1009BA0079238431031CE22CE32CFA2F8B31332365
:1009CA0084318931DC2184318F3112278431893194
:1009DA00EE2184318F31892784318A31132284317F
:1009EA002000AF002F08F5008A31002284318D31B2
:1009FA005A2584310A302000AF002F08C600FA2F8A
:100A0A00FA2F89312D2184312000AF002F08BE0032
:100A1A003E080D3A0319122D132D1A2D3E080A3AD3
:100A2A00031D182D192D372D1A2D89318121843155
:100A3A000318202D212D272D2D302000B100003044
:100A4A00B2002D2D2B302000B1000030B2002D2D28
:100A5A0031088931322184310A302000AF002F0851
:100A6A00C600FA2F8B3179238431031C3D2D3E2D8C
:100A7A00FA2F20003E082B3A031D442D452D4F2DF9
:100A8A0001308A31D82284310A302000AF002F0881
:100A9A00C600FA2F3E082D3A031D542D552DFA2F64
:100AAA0000308A31D82284310A302000AF002F0862
:100ABA00C600FA2FFA2FFA2FFA2FFA2F89312D2191
:100ACA0084312000AF002F08BF003F080D3A0319F8
:100ADA006F2D702D772D3F080A3A031D752D762D3F
:100AEA00942D772D89317621843103187D2D7E2D21
:100AFA00842D2D302000B3000030B4008A2D2B3015
:100B0A002000B3000030B4008A2D33088931322125
:100B1A0084310A302000AF002F08C600FA2F8B312B
:100B2A0079238431031C9A2D9B2DFA2F20003F082C
:100B3A002B3A031DA12DA22DAC2D01308A31BD22E5
:100B4A0084310A302000AF002F08C600FA2F3F0870
:100B5A002D3A031DB12DB22DFA2F00308A31BD2254
:100B6A0084310A302000AF002F08C600FA2FFA2F6E
:100B7A00FA2FFA2FFA2F89312D2184312000AF0064
:100B8A002F08C00040080D3A0319CC2DCD2DD42DC5
:100B9A0040080A3A031DD22DD32DF12DD42D8931C7
:100BAA006B2184310318DA2DDB2DE12D2D30200045
:100BBA00B5000030B600E72D2B302000B50000301C
:100BCA00B600E72D35088931322184310A302000F8
:100BDA00AF002F08C600FA2F8B3179238431031C0A
:100BEA00F72DF82DFA2F200040082B3A031DFE2D71
:100BFA00FF2D092E01308A31392284310A30200032
:100C0A00AF002F08C600FA2F40082D3A031D0E2EFA
:100C1A000F2EFA2F00308A31392284310A3020000F
:100C2A00AF002F08C600FA2FFA2FFA2FFA2FFA2F41
:100C3A001E2E8931DC2184312000AF002F08C40028
:100C4A003A30AF002F08F4004430833191238431C5
:100C5A00031C302E312EFA2F2000BA08031D362E1F
:100C6A00372E3C2E440880310E208431472E200036
:100C7A0044088F31122784312000440889314621E3
:100C8A008431472E0A302000AF002F08C6004308DF
:100C9A00423A031D512E522EFA2F8931A621843150
:100CAA00FA2FFA2FFA2F592E8931EE21843120009A
:100CBA00AF002F08C5003B30AF002F08F4004530C5
:100CCA00833191238431031C6B2E6C2EFA2F200062
:100CDA00BB08031D712E722E772E450880310E2017
:100CEA008431822E200045088F31892784312000E3
:100CFA00450889313F218431822E0A302000AF0015
:100D0A002F08C6004308433A031D8C2E8D2EFA2F56
:100D1A008931B3218431FA2FFA2FFA2F942E8A318E
:100D2A00132284312000AF002F08C1003C30AF00ED
:100D3A002F08F4004130803189208431031CA62E0B
:100D4A00A72EFA2F2000BC08031DAC2EAD2EBD2EF7
:100D5A004108AF00B0012F08A8003008A9008E3161
:100D6A002F2684310A302000AF002F08C600DF2E5C
:100D7A004108013A031DC22EC32ECD2E01308931FE
:100D8A004D2184310A302000AF002F08C600DF2E23
:100D9A004108023A031DD22ED32EDF2E02308931AA
:100DAA00382184310A302000AF002F08C600DF2E18
:100DBA00DF2EDF2E46080A3A031DE42EE52EFA2F0F
:100DCA008A31132284312000AF002F08F5008A31BE
:100DDA00002284318D315A25843120004308443A57
:100DEA00031DF82EF92EFA2F893199218431FA2F11
:100DFA00FA2FFA2FFA2F012F8A310022843120008C
:100E0A00AF002F08C2003D30AF002F08F400423077
:100E1A00803189208431031C132F142FFA2F2000CC
:100E2A00BD08031D192F1A2F2A2F4208AF00B0013F
:100E3A002F08A8003008A9008E312F2684310A30E5
:100E4A002000AF002F08C6004C2F4208043A031DA9
:100E5A002F2F302F3A2F043089314D2184310A3017
:100E6A002000AF002F08C6004C2F4208083A031D85
:100E7A003F2F402F4C2F083089314D2184310A30C1
:100E8A002000AF002F08C6004C2F4C2F4C2F4608CD
:100E9A000A3A031D512F522FFA2F8A311322843115
:100EAA002000AF002F08F5008A31002284318D31ED
:100EBA005A25843120004308493A031D652F662FBD
:100ECA00FA2F8931C0218431FA2FFA2FFA2FFA2FFB
:100EDA008B3179238431FA2FFA2F200043080A3AFA
:100EEA000319A52C073A0319A52C2C3A0319C02D6E
:100EFA00053A0319632D0E3A0319062D153A0319FB
:100F0A00AE2C7D3A03191E2E013A0319592E073ABF
:100F1A000319942E0D3A0319012F2B3A03191E2E89
:100F2A00013A0319592E073A0319942E0D3A031957
:100F3A00012F173A0319DC2C6D2FFA2FA42F8E31AB
:100F4A009D268431031CAA2FAB2FB12F0A30200013
:100F5A00AF002F08C600FA2F0D302000AF002F086F
:100F6A00C600FA2FFA2F8A31602284310A30200013
:100F7A00AF002F08C600FA2F89312D2184312000B5
:100F8A00AF002F08B70037088B31FD2384310A30B0
:100F9A002000AF002F08C600FA2F023089315421F1
:100FAA0084310A302000AF002F08C600FA2F013022
:100FBA008931542184310A302000AF002F08C6003D
:100FCA00FA2F4608893162218431FA2FFA2F20003C
:100FDA004608F83E031CE62F840008300402031872
:100FEA00E62F88310435003E820020004608893108
:100FFA003221843108008431932C84319C2C87312E
:10100A00A42F8731B82F8731C12F8731A42F873179
:06101A00D22F8731DC2F0C
:101254000134083403348B311123893131290800D6
:10126400F100710889318C2189310800F10071087D
:10127400F00070082000D5000800F1007108F000AB
:1012840070082000D4000800F1007108F000700814
:101294002000D3000800F1007108F000700820005D
:1012A400D6000800F1007108F00070082000D90091
:1012B4000800F500750880388B31FD23893108005A
:1012C400F20022008D160D12720881310F2189312E
:1012D4000800200052186F297029722903107529FB
:1012E40003147529752908002000D2187A297B294E
:1012F4007D290310802903148029802908002000F7
:10130400521985298629882903108B2903148B29CE
:101314008B290800F0008F2964002000111E9329F6
:1013240094298E299529700823009A000800033017
:10133400F0000030F10020005508FC007C08F200A9
:1013440081319C21893108000130F0000030F10026
:1013540020005308FC007C08F20081319C21893173
:1013640008000030F0000030F10020005408FC00B8
:101374007C08F20081319C21893108000230F000A0
:101384000030F10020005608FC007C08F200813196
:101394009C218931080022008D120D120D118D102F
:1013A4000D140C168C110C118C100C108B31C923DC
:1013B4008931080020005308F0007008F1006530FE
:1013C4007102031CE629E729EB296430F000700858
:1013D400F1007108ED29080020005408F00070089D
:1013E400F10065307102031CF829F929FD296430E4
:1013F400F0007008F1007108FF2908002000560869
:10140400043A0319062A072A0C2A0830F00000308F
:10141400F100102A0430F0000030F1007008122AA4
:10142400080020005508023A0319192A1A2A1F2A0B
:101434000130F0000030F100232A0230F0000030C7
:10144400F1007008252A080023001D121D16190832
:10145400F0007008F1001908F0007008F100190894
:10146400F0007008F1009D139D1764000800F70058
:101474000030F708031D0130F5002000520806393A
:101484007504F6007608F800780808388B31FD23D7
:101494008A31080020005708023A031D522A532AB1
:1014A400562AD901D90A5B2A0330F5007508D900F8
:1014B4005B2A02308B31FD238A3108000330F500AA
:1014C40075082000D90001308B31FD238A312000BA
:1014D4005708023A031D6F2A702A732AD901D90AC0
:1014E400732A0800FD000230FC000430FB00BA300F
:1014F400FA00FA0B7B2AFB0B7B2AFC0B7B2A0000ED
:101504007908FA007A08F5007D088D315A258A3168
:101514000800F300F2018E2A731C912A922A972A5A
:101524007008F1007108F207972A0310F00D0310F8
:10153400F30CF308031D9F2AA02A8E2AA12A7208FD
:10154400A32A0800CD01CE01CF01D001D101D201DF
:10155400D301D401D501D60189312A218A31D7009A
:1015640089312B218A31D80089312C218A31D90043
:1015740020008231C52AF600F608031DC22AC32AB8
:10158400C62AF701F801CB2A0230F7000030F80030
:10159400CB2A2000520805397704F5007508F900B4
:1015A400790808388B31FD238A310800F600F608E3
:1015B400031DDD2ADE2AE12AF701F801E62A0430B8
:1015C400F7000030F800E62A2000520803397704B7
:1015D400F5007508F900790808388B31FD238A3144
:1015E4000800F20022008D120D120D118D100D1441
:1015F4007208043A031DFF2A022B22000C16042B46
:1016040022000C128C110C118C100C108B31C9237C
:101614008A317208F10071082000D8000800230004
:101624001D1D152B162B1A2B8A3126228B311A2BB2
:1016340023009D1C1E2B1F2B252B8A3126228B3128
:10164400252B252B64002000911E292B2A2B242BCB
:101654002B2B23001908F2007208F3007308322BB5
:10166400080000308400983085000008F0007008FD
:101674002000D40001308400983085000008F00078
:101684007008D30002308400983085000008F00010
:101694007008D60003308400983085000008F000FC
:1016A4007008D5000800F401F501582B701C5B2B61
:1016B4005C2B602B7208F4077308F53D0130F2359A
:1016C400F30D890B612B0130F136F00C890B662B7D
:1016D40071087004031D6F2B702B582B712B750828
:1016E400F101F1077408F001F007782B0800F50107
:1016F400F50A7C2B89312D218B31F4007408F60016
:1017040076080D3A0319872B882B932B76080A3A0F
:10171400031D8D2B8E2B902B932B932BF5017C2B60
:101724007C2BF508031D972B982B9A2B03109D2BCC
:1017340003149D2B9D2B0800F201F20A21000C14C6
:1017440022008C100630F1003030F000F00BA82B92
:10175400F10BA82B000020000C1CB12BB22BB32BD7
:10176400F20122008C140630F1003030F000F00B4E
:10177400B92BF10BB92B000020000C18C22BC32B82
:10178400C42BF20121000C10720CC82B080020009D
:101794005908033A031DCF2BD02BDC2B22008D15C7
:1017A4000E140630F000F00BD52B000022008D1132
:1017B4000E10F72B20005908023A031DE22BE32BED
:1017C400ED2B22000E140630F000F00BE72B000086
:1017D40022000E10F72B22008D150630F000F00BBE
:1017E400F12B000022008D11F72B1A30F000F00BC2
:1017F400F92B00000800F40022008D120D12740869
:1018040081310F218B317408013A03190A2C0B2CF6
:10181400112C7408023A031D102C112C1D2C2000CD
:10182400D1010B30F3006230F200F20B172CF30BF2
:10183400172C0000332CF8307405F2007208083AB3
:10184400031D252C262C2D2C74080739F200720850
:101854002000D200332C2130F200F20B2F2C332C39
:10186400332C08008B132100191799161916991592
:1018740023008C018D0118308E00603021008C0013
:10188400C0308D00FE308E0022008C018D018E014F
:101894000F3020009B00250093151315931013108F
:1018A40020001B08250091009A161A169A151A157D
:1018B4009A101A1098019A121A12200091109C1072
:1018C4001C101C15652C911C682C692C652C21009E
:1018D4008E100E11080020002608F0002708F100E1
:1018E400890D893B8909F200F3000030F700F430D8
:1018F400F6002430F5000030F40082312D228C31C2
:101904007308FC007208FB007108FA007008F90003
:101914000030F3000030F2000030F1001030F0002D
:101924007C08F7007B08F6007A08F5007908F400D3
:1019340082312D228C317008FF3E23009B009F11C1
:101944001E151E129D179E161D1664008A3126222E
:101954008C3108000130893146218C318931A6212E
:101964008C31323089313F218C318931B3218C3132
:10197400083089314D218C318931C0218C310130BD
:10198400893138218C31893199218C31F901F90A55
:1019940004308A3174228C314430893162218C3193
:1019A4004530893162218C314630893162218C3154
:1019B4004130893162218C315530893162218C3139
:1019C4004C30893162218C315430893162218C311F
:1019D4005330893162218C318931DC218C318F3152
:1019E40012278C318931EE218C318F3189278C314A
:1019F4000800FD012000A71F002D012D092DA609B7
:101A0400A709A60A0319A70AFD01FD0A092DA51FA6
:101A14000C2D0D2D132DA409A509A40A0319A50A3B
:101A2400132D250824040319182D192D482DFC0104
:101A3400FC0A262D0130A435A50D890B1D2D01307E
:101A4400FB007B08FC07262DA51F292D2A2D1C2D04
:101A54002C2D2C2D25082702031D322D24082602A7
:101A6400031C352D362D3B2D2408A6022508A73B43
:101A74003B2D0130A536A40C890B3C2D0130FC0212
:101A8400031D452D462D2C2D482D482D7D08031D65
:101A94004C2D522DA609A709A60A0319A70A522DEF
:101AA4002708A501A5072608A401A407592D0800A5
:101AB400F8000330F60076082000D9008931CD21E2
:101AC4008D313430F700F130F600F60B672DF70B4B
:101AD400672D6C2D8931CD218D310630F7003030E2
:101AE400F600F60B732DF70B732D00008931CD2111
:101AF4008D310630F7003030F600F60B7F2DF70BF2
:101B04007F2D000078088A31F3228D317808043A59
:101B1400031D8D2D8E2D932D28308B31FD238D317A
:101B2400972D38308B31FD238D3108308B31FD23D7
:101B34008D3101308B31FD238D3106308B31FD2306
:101B44008D3114308B31FD238D3102308B31FD23E7
:101B54008D310C308B31FD238D312000D10175087E
:101B6400F6007608D7005708023A031DBA2DBB2D9C
:101B7400BE2DD901D90AC32D0330F6007608D90049
:101B8400C32D08002000A101F71FC92DCA2DD22D95
:101B9400F609F709F60A0319F70AA101A10AD22DD9
:101BA400F91FD52DD62DE02DF809F909F80A0319E6
:101BB400F90A0130FA007A08A106E02DA201A30176
:101BC400770876040319E72DE82D1D2EA001A00A3D
:101BD400F52D0130F635F70D890BEC2D0130FA00A7
:101BE4007A08A007F52DF71FF82DF92DEB2DFB2D05
:101BF400FB2D0130A235A30D890BFC2D770879024A
:101C0400031D062E76087802031C092E0A2E102EB8
:101C14007608F8027708F93B2214102E0130F736C3
:101C2400F60C890B112E0130A002031D1A2E1B2E57
:101C3400FB2D1D2E1D2E2108031D212E272EA2094A
:101C4400A309A20A0319A30A272E2308F701F707F9
:101C54002208F601F6072E2E080010302000AD00F1
:101C64002730AE00AC01AC0A842E0A302000A40058
:101C74000030A5002E08F701F7072D08F601F60736
:101C84002908F901F9072808F801F8078D31C42556
:101C94008E3177082000A701A7077608A601A607BA
:101CA4008C31FB248E3120002508AB01AB072408BE
:101CB400AA01AA072B082A04031D612E622E682E8E
:101CC4002C08031D662E682E6F2E6F2E2A08303EB8
:101CD400893132218E312000AC010A30F600003007
:101CE400F7002E08F901F9072D08F801F8078D31DE
:101CF400C4258E3177082000AE01AE077608AD0109
:101D0400AD07842E2E08803AFF0080307F02031D29
:101D14008D2E01302D020318902E912E372E922EE7
:101D240020002C08031D972E9C2E3030893132213F
:101D34008E319C2E08000130F80078082000D1076D
:101D4400043051020318A72EA82E0A2F5708023A6E
:101D5400031DAD2EAE2EFC2ED52ED52ED901D90ABB
:101D6400403089315B218E310314112F112F023041
:101D7400F80078082000D900003089315B218E31C9
:101D84000314112F112F0230F80078082000D90015
:101D9400403089315B218E310314112F112F031030
:101DA400112F112F112F20005108013A0319B02EC1
:101DB400033A0319B92E013A0319C52ED12E112F56
:101DC400FC2E403089315B218E310314112F112FE9
:101DD400143089315B218E310314112F112F5430AB
:101DE40089315B218E310314112F112F0310112F10
:101DF400112F112F20005108013A0319E32E033A41
:101E04000319EA2E013A0319F12EF82E112F112F7E
:101E14000430F8007808D1000310112F112F0800A6
:101E24002000AC003F30F8000030F9001B08A4008B
:101E3400A5012408F6002508F7008D31C4258F314B
:101E440077082000A901A9077608A801A807FF3090
:101E5400F2000030F3002C08A400A501A409A50990
:101E6400A40A0319A50A2408643EF0000030253DA5
:101E7400F1008B3155238F317108F901F90770088E
:101E8400F801F8076430F6000030F7008D31C425FE
:101E94008F3176082000A600A7012608AA0027088B
:101EA400AB002908F701F7072808F601F6072B0805
:101EB400F901F9072A08F801F8078D31C4258F3193
:101EC40076082000A4002408AD002D186A2F6D2F79
:101ED400250013166F2F2500131220002D08A400CF
:101EE4000130A436890B732F2418792F7C2F2500F9
:101EF40093167E2F2500931220002D08A400023093
:101F0400A436890B822F24082500910008002000A4
:101F1400AC003F30F8000030F9001B08A400A50114
:101F24002408F6002508F7008D31C4258F31770881
:101F34002000A901A9077608A801A807FF30F2002C
:101F44000030F3002C08A400A501A409A509A40AE3
:101F54000319A50A2408643EF0000030253DF10071
:101F64008B3155238F317108F901F9077008F80195
:101F7400F8076430F6000030F7008D31C4258F3146
:101F840076082000A600A7012608AA002708AB00AF
:101F94002908F701F7072808F601F6072B08F901C5
:101FA400F9072A08F801F8078D31C4258F3176081E
:101FB4002000A4002408AD002D18E12FE42F2500F3
:101FC4001A16E62F25001A1220002D08A40001304D
:101FD400A436890BEA2F2418F02FF32F25009A1624
:101FE400F52F25009A1220002D08A4000230A436F3
:0C1FF400890BF92F240825009800080034
:1030000032340034083401340034003400340034E5
:103010000034003400340034003400340034003410
:103020000034003400340034003400340034003400
:1030300000340034003400340034003400340034F0
:10320000003445346C3473346934643469342034A4
:103210004C34203432343034313433342D3430347F
:1032200031342D343234353400340034773477344B
:1032300077342E346A346D346534643476346534CE
:1032400064342E3463346F346D34003400344534C8
:0E3250006C34733469346434693400340034EF
:020000040001F9
:04000E0084EFEFD3B9
:00000001FF
