:020000040000FA
:020000001028C6
:040002000034003492
:020008000900ED
:100020008B1364008101831681150114811401155D
:100030008312640081121F159F141F14850186010D
:1000400059222E22C1200512861164000511851146
:1000500085100510851305138613061386120612E4
:100060008510051582226400051185158222640021
:100070008511851482226400851005148222640093
:1000800005108517822264008513051782226400FB
:1000900005138617822264008613061782226400E5
:1000A00006138616822264008612061682226400D7
:1000B000061282226400051585158514051485171E
:1000C0000517861706178616061685148222640001
:1000D0000511851185100510851305138613061368
:1000E00086120612851082222030FB00A030FC0010
:1000F0002030FD00F801F701F901E1200E30E12088
:100100000F30F6016400760896200E21F60A0A3AAE
:1001100003198B2882280A30672264003A220E21B4
:100120000A3A031D8D280A3067228D2883169B000A
:100130001C141A08831203130800FA007A18851495
:100140007A1C8510FA180514FA1C05107A198517FF
:100150007A1D8513FA190517FA1D05137A1A8617E1
:100160007A1E8613FA1A0617FA1E06137A1B8616CB
:100170007A1F8612FA1B0616FA1F06128312031341
:100180000800831605128611051185118312831646
:1001900085100510851305138613061386120612A3
:1001A00083120313080000309D2083168514051464
:1001B000851705178617061786160616831203136A
:1001C00008000C30982138309821063077220C3006
:1001D0009821383098210C309821383098210C30F3
:1001E0009821383098210C309821083098210C3013
:1001F0009821013098210C309821063098210C303C
:100200009821143098210C309821023098210C301C
:1002100098210C309821831203130800F1007718FD
:100220002229083A03199429083A0A3A03194B2952
:100230000A3A0B3A031994290B3A0C3A031977142A
:100240000C3A2429771024297B08703A031D3129A0
:100250007C08F03A031D39297D08503A031D4229D4
:100260009429831203137B08840071088000FB0A21
:100270009429831203137C0883138400710880007F
:10028000FC0A9429831203137D08831784007108E4
:100290008000FD0A94297B08203A031994298312CF
:1002A00003132030FE00703A031962297E087B0692
:1002B000031988297E088313840000089821FE0A08
:1002C0007E08532983120313A030FE00F03A03196D
:1002D00075297E087C06031988297E08831384000B
:1002E00000089821FE0A7E08662983120313203035
:1002F000FE00503A031988297E087D0603198829D3
:100300007E088317840000089821FE0A7E08792958
:10031000831203132030FB00A030FC002030FD00CE
:10032000F801F701F90194297108831203130800F9
:10033000F2007818B029093A0319B829093A0C3A99
:100340000319E1290C3A0D3A0319E3290D3A0E3A43
:100350000319EB290E3A0F3A0319EE290F3AF12946
:100360000511851178107208FA210A307722F629D2
:10037000F90A7908013A0319C929013A023A03191D
:10038000D129023A033A0319D929033A0430F90072
:10039000F6290511851180304038FA210230772284
:1003A000F6290511851180301438FA2102307722A0
:1003B000F6290511851180305438FA210230772250
:1003C000F6297814F629F901051185110230FA2170
:1003D00005307722F629F814F901F629F810F90109
:1003E000F629051585117208FA21F629720883127B
:1003F00003130800FA007A1885147A1C8510FA187D
:100400000514FA1C05107A1985177A1D8513FA1937
:100410000517FA1D05137A1A86177A1E8613FA1A1B
:100420000617FA1E06137A1B86167A1F8612FA1B07
:100430000616FA1F0612F81C2222F8182822831228
:1004400003130800051600000512831203130800A9
:100450008615000086118312031308008316061701
:10046000193099001815181283129817181683124C
:10047000031308006400831203138C1E3A2A8312AC
:10048000031318194B2A98184B2A831203131A08BE
:100490008312031308008312031318121816831211
:1004A00003131A081A081A088312031398139817CB
:1004B0003A2A83160611193099001815181283125A
:1004C0009817831698168312831203130800831259
:1004D000031364000C1E692A831203139900831608
:1004E00003136400981C712A831203130800F5009B
:1004F0006630F400640000000000F40B7A2AF50B6B
:10050000782A0800F000C83077227008080005300B
:10051000051D77220800F300D3200A307722051149
:10052000851564000516061A912A0512C72073085E
:020530000800C1
:02400E00743FFD
:1042000045006C0073006900640069002000200014
:104210005B0072006500760047005D0009007700D2
:10422000770077002E006A006D006500640076005C
:10423000650064002E0063006F006D000900090036
:1042400032003000310030002D00300037002D00EA
:10425000310039000E0045006C00730069006400F5
:104260006900200020005B007200650076004700B6
:104270005D0020002A0009007700770077002E00FB
:104280006A006D00650064007600650064002E0021
:1042900063006F006D00090009003200300031003A
:1042A00030002D00300037002D00310039000A00A9
:00000001FF
