:020000001028C6
:020008000900ED
:100020008B1364008101831681150114811401155D
:100030008312640081121F159F141F14850186010D
:100040009021B52195218316051205118511831282
:10005000BC20051185118510051085130513861325
:1000600006138612061285100515E6210511851561
:10007000E62185118514E62185100514E621051079
:100080008517E62185130517E62105138617E62156
:1000900086130617E62106138616E6218612061633
:1000A000E6210612E6210515851585140514851728
:1000B000051786170617861606168514E6210511FC
:1000C00085118510051085130513861306138612F6
:1000D00006128510E6212030FC00A030FD00203003
:1000E000FE00F901FA01F801F701640077088720A2
:1000F000C720F70A0A3A03197E28752864009F2151
:10010000C7200A3A031D7E280A30C1217E288316A3
:100110009B001C141A0883120800FB007B1885142E
:100120007B1C8510FB180514FB1C05107B1985171B
:100130007B1D8513FB190517FB1D05137B1A8617FD
:100140007B1E8613FB1A0617FB1E06137B1B8616E7
:100150007B1F8612FB1B0616FB1F061208000030D1
:100160008D20831685140514851705178617061725
:10017000861606168312080083168510051085134F
:100180000513861306138612061283120800F10067
:10019000781CCD28412178103F29083A03193E29BF
:1001A000083A093A03193E29093A0A3A0319EF288D
:1001B0000A3A0B3A03193E290B3A0C3A03193E2925
:1001C0000C3A0D3A03193E290D3A0E3A0319382913
:1001D0000E3A0F3A03193B290F3A41213F297C0877
:1001E000203A03193F29831203132030FF00703A8D
:1001F000031906297F087C0603192C297F0883131D
:10020000840000086821FF0A7F08F728831203137F
:10021000A030FF00F03A031919297F087D06031961
:100220002C297F088313840000086821FF0A7F08B7
:100230000A29831203132030FF00503A03192C2996
:100240007F087E0603192C297F0883178400000885
:100250006821FF0A7F081D29831203132030FC0048
:10026000A030FD002030FE00F901FA01F8013F291D
:10027000781441213F29781441213F293F297108F1
:1002800008007C08703A031D4E297D08F03A031DD2
:1002900056297E08503A031D5F2908008312031374
:1002A0007C08840071088000FC0A08008312031394
:1002B0007D088313840071088000FD0A0800831202
:1002C00003137E088317840071088000FE0A08006B
:1002D000F2007A187C29791884290E3A03197629B4
:1002E0000E3A0F3A031979290F3A7C2979147208CA
:1002F00008007A14720808000515851172088D200F
:100300008C217A10EB2108000511851172088D20CF
:100310008C217910EB210800051600000512080059
:10032000831606108312061008008316061719306C
:100330009900181518128312981718160800061439
:100340006400831203138C1EA0298312031318194F
:10035000A0299818B229831203131A0883120313D1
:100360000610080018121816A02983160611193055
:10037000990018151812831298178316981683126D
:1003800008008312031364000C1EC3298312031395
:100390009900831603136400981CCB29831203135E
:1003A0000800F6006630F500640000000000F50B60
:1003B000D429F60BD2290800F0000130D1217008B1
:1003C0000800F0000530D12170080800F000C830A6
:1003D000D121700808000A30D1210800F400AF20B4
:1003E0000130D1210511851564000516061AF4297E
:0803F0000512BC20740808008E
:02400E00741F1D
:104200000E0038000E000C000E0014000E0001001D
:1042100045006C00730069006400690020007200B2
:104220003300200030003900300031000E00A800BB
:104230007700770077002E006A006D00650064004B
:104240007600650064002E0063006F006D000E00B4
:0442500002000A005E
:00000001FF
