:1000000080310228813155290034773477347734B0
:100010002E346A346D346534643476346534643433
:100020002E3463346F346D340034003445346C3412
:1000300073346934643469340034003445346C34C6
:10004000733469346434693420344B3420343234AA
:100050003034313432342D34313432342D3431347F
:10006000383400348631A12E8731C02F8731C52F17
:100070008731F52F8731CA2F8731C52F8731D62F8A
:040080008731DB2FBA
:10025600033420003C082F29080020003B083329DE
:10026600080001308231792281310800F5007508D5
:1002760080388231792281310800F1007108F0005E
:1002860070082000BB000800F1007108F00070083B
:100296002000BC000800F1007108F0007008200082
:1002A600BD000800BA01BB01BC0181312B2181319F
:1002B600BD0020008631252EF00062296400200052
:1002C600111E6629672961296829700823009A008A
:1002D6000800F130F0000030F10020003B08F30088
:1002E6007308F2008331842381310800F030F00076
:1002F6000030F10020003C08F3007308F20083315F
:100306008423813108000230823179228131203004
:10031600F6002930F500F50B8E29F60B8E29932968
:100326000800710823009201920770089101910755
:10033600151395131514640023001308A229080049
:10034600F20022008D150D12720884316924813164
:100356008131DC2181318131F52181310800230091
:100366001D121D161908F0007008F1001908F0009A
:100376007008F1001908F0007008F1009D139D1730
:1003860064000800F030F0000030F1008131942163
:100396008131F20072082000BC00F130F00000301C
:1003A600F100813194218131F20072082000BB00F6
:1003B600080020003D1CE029E129E32922008D16D2
:1003C6002000BD1CE729E829EB2922000D15EB29A1
:1003D6000B30F1006230F000F00BEF29F10BEF2942
:1003E6000000080020003D1CF929FA29FC292200FA
:1003F6008D122000BD1C002A012A042A22000D119C
:10040600042A0B30F1006230F000F00B082AF10BE1
:10041600082A0000080023001D1D122A132A172A85
:100426008131B2218231172A23009D1C1B2A1C2AE6
:10043600222A8131B2218231222A222A6400200016
:10044600911E262A272A212A282A23001908F20083
:100456007208F30073082F2A0800F401F501332A05
:10046600701C362A372A3B2A7208F4077308F53DB2
:100476000130F235F30D890B3C2A0130F136F00CD0
:10048600890B412A71087004031D4A2A4B2A332A14
:100496004C2A7508F101F1077408F001F007532A98
:1004A6000800F501F50A572A82310E228231F4003E
:1004B6007408F60076080A3A0319622A632A6E2A35
:1004C60076080D3A031D682A692A6B2A6E2A6E2A57
:1004D600F501572A572AF508031D722A732A752A29
:1004E6000310782A0314782A782A0800F4002200D8
:1004F6008D110D1274088431692482318131DC2119
:1005060082318131F52182312030F3002930F20029
:10051600F20B8B2AF30B8B2A902A7408013A0319E3
:10052600952A962A9C2A7408023A031D9B2A9C2A1D
:100536009F2A2000BA019F2A0800F300F401F50162
:10054600B82AA62A64002000111EAA2AAB2AA52AC8
:10055600AC2A7308740780310A00823123009A009E
:100566000130F4070030F53DB82A7508803AF200EC
:100576007108803A7202031DC22A70087402031CB5
:10058600C52AC62AA62AC72A08002000A400643065
:10059600F6000030F7002408FB00FC01FB09FC090B
:1005A600FB0A0319FC0A7B08643EF00000307C3D20
:1005B600F100FF30F2000030F30082313022823148
:1005C6007108F901F9077008F801F8078431AD24BC
:1005D60082317608FD007D082000A500250825004B
:1005E600910008002000A4006430F6000030F700F7
:1005F6002408FB00FC01FB09FC09FB0A0319FC0AA1
:100606007B08643EF00000307C3DF100FF30F200D4
:100616000030F3008231302282317108F901F90786
:100626007008F801F8078431AD2482317608FD00A0
:100636007D082000A5002508250098000800013047
:10064600F60076082000BA0704303A0203182C2B6D
:100656002D2B4C2B3F2B3F2B4030813139218331C1
:10066600512B1430813139218331512B5430813152
:1006760039218331512B512B20003A08013A0319B5
:100686002F2B033A0319342B013A0319392B512B1B
:10069600512B0430F6007608BA00512B080038308A
:1006A6008231792283316830F600E430F500F50BAB
:1006B6005A2BF60B5A2B00003830823179228331BF
:1006C6003830823179228331383082317922833150
:1006D60008308231792283310130823179228331A7
:1006E6000630823179228331143082317922833186
:1006F60002308231792283310C3082317922833182
:100706000800F11B872B882BBA2B7108803AFF0053
:1007160081307F02031D912B00307002031C942B45
:10072600952B972BBA2BBA2B7108230092019207AF
:10073600700891019107720893001515151395130A
:100746008B13A62B8B138B1BA92BAA2BA52BAB2BA1
:10075600553023009600AA30960095141511B42B37
:10076600640023009518B82BB92BB32BBA2B0800BD
:100776008B132100191799161916991123008C014C
:100786008D01013021008C00C2308D00BE308E00FC
:1007960022008C018D018E01FF3020009B00250078
:1007A6009315131593101310161491019A121A1219
:1007B6009A151A159A101A101D14FF3098009A16D9
:1007C6001A16200091109C101C101C15EA2B911C67
:1007D600ED2BEE2BEA2B21000E118E1008002200C5
:1007E6000E140530F2000F30F100F430F000F00B7B
:1007F600FA2BF10BFA2BF20BFA2B22000E10053016
:10080600F2000F30F100F430F000F00B082CF10B81
:10081600082CF20B082C22000E140530F2000F30C3
:10082600F100F430F000F00B162CF10B162CF20B45
:10083600162C22000E100530F2000F30F100F430B5
:10084600F000F00B242CF10B242CF20B242C2200AC
:100856000E14080020002608F0002708F100890D74
:10086600893B8909F200F3000130F700E830F60011
:100876004830F5000030F40085318D258431730849
:10088600FC007208FB007108FA007008F9000030DD
:10089600F3000030F2000030F1001030F0007C0868
:1008A600F7007B08F6007A08F5007908F400853130
:1008B6008D2584317008FF3E23009B009F111E1575
:1008C6001E129D179E161D1664000800F000701C6F
:1008D6006D2C6E2C712C22000D14742C22000D1020
:1008E600742CF01C772C782C7A2C8C147C2C8C1085
:1008F6007C2C701D7F2C802C822C0C15842C0C11CA
:10090600842CF01D872C882C8A2C8C158C2C8C1111
:100916008C2C701E8F2C902C922C0C16942C0C1256
:10092600942CF01E972C982C9A2C8C169C2C8C129E
:100936009C2C701F9F2CA02CA22C0C17A42C0C13E3
:10094600A42CF01FA72CA82CAA2C8C17AC2C8C132B
:10095600AC2C08002000A101F71FB22CB32CBB2C35
:10096600F609F709F60A0319F70AA101A10ABB2C31
:10097600F91FBE2CBF2CC92CF809F909F80A03196E
:10098600F90A0130FA007A08A106C92CA201A301CE
:10099600770876040319D02CD12C062DA001A00AC5
:1009A600DE2C0130F635F70D890BD52C0130FA0017
:1009B6007A08A007DE2CF71FE12CE22CD42CE42CBD
:1009C600E42C0130A235A30D890BE52C77087902BA
:1009D600031DEF2C76087802031CF22CF32CF92C5D
:1009E6007608F8027708F93B2214F92C0130F7361D
:1009F600F60C890BFA2C0130A002031D032D042DE1
:100A0600E42C062D062D2108031D0A2D102DA20902
:100A1600A309A20A0319A30A102D2308F701F70751
:100A26002208F601F607172D08002000A801A80ADB
:100A3600A501A601A7011F2D82310E228531F800DE
:100A460078082000A90029080A3A03192B2D2C2D15
:100A5600682D29080D3A031D312D322D342D682DB0
:100A6600682D2808031D382D1F2D30302902031C40
:100A76003D2D3E2D632D3A3029020318432D442D7A
:100A8600632DA501A50A2908D03EF8007808A40020
:100A96002408F800F9012708F101F1072608F001FA
:100AA600F0070A30F2000030F3008231302285313F
:100AB600780870072000A6007908713DA7001F2D51
:100AC600A8011F2D1F2D1F2D1F2D2808031D6C2D5E
:100AD600722DA508031D702D712D7B2D722DFF30F3
:100AE600A300FF30A2008030A1000030A000852DB9
:100AF6002608A0002708A100890D893B8909A200C4
:100B0600A300852D2108F701F7072008F601F6074F
:100B16008C2D08002000A101F31F922D932DA02DEE
:100B2600F009F109F209F309F00A0319F10A0319A8
:100B3600F20A0319F30AA101A10AF71FA32DA42D96
:100B4600B42DF409F509F609F709F40A0319F50AAB
:100B56000319F60A0319F70A0130F8007808A10606
:100B6600B42D0030A5000030A4000030A3000030F2
:100B7600A20073087204710470040319C32DC42DF6
:100B86000B2EA001A00AD32D0130F035F10DF20D88
:100B9600F30D890BC82D0130F8007808A007D32D76
:100BA600F31FD62DD72DC72DD92DD92D0130A2351E
:100BB600A30DA40DA50D890BDA2D73087702031D6D
:100BC600EE2D72087602031DEE2D71087502031DC7
:100BD600EE2D70087402031CF12DF22DFC2D700809
:100BE600F4027108F53B7208F63B7308F73B2214D2
:100BF600FC2D0130F336F20CF10CF00C890BFD2DB7
:100C06000130A002031D082E092ED92D0B2E0B2E06
:100C16002108031D0F2E1B2EA209A309A409A5094D
:100C2600A20A0319A30A0319A40A0319A50A1B2E6B
:100C36002508F3002408F2002308F1002208F0003A
:100C4600242E08008331BB2386318131C5218631AC
:100C560080302000A6002530A70084312D2486315F
:100C66008331F22386318331522386312000B70146
:100C7600B8014B2E3708163E80310A008631813185
:100C8600A321863101302000B7070030B83D4B2E36
:100C96003708163E80310A0086310038031D542E6F
:100CA600552E3D2E562EB701B801403081313921DF
:100CB60086316C2E20003708053E80310A008631C9
:100CC6008131A321863101302000B7070030B83DBD
:100CD6006C2E20003708053E80310A008631003828
:100CE600031D762E772E5D2E782E81318621863154
:100CF60005302000AC000F30AB00F430AA00AA0B80
:100D0600822EAB0B822EAC0B822E81312C218631AA
:100D16008231C82286318131302186318231F522F5
:100D2600863122000E10972E82310E228631200047
:100D3600AA002A08B90022000E14E72F82310E22DB
:100D460086312000AA002A08AD00A42FAA2E8131E0
:100D5600342186310A302000AA002A08B900F52F6E
:100D6600823154228631031CB92EBA2EF52F133048
:100D7600F0000030F1001E308231A02286310A30A8
:100D86002000AA002A08B900F52FF52F8231542237
:100D96008631031CCF2ED02EF52F323081314721DC
:100DA6008631013081314021863181317921863188
:100DB60081316C218631033081314E2186310A30F2
:100DC6002000AA002A08B900F52FF52F853118252D
:100DD600863177082000B001B0077608AF01AF076B
:100DE600B01BF62EF72EF52F3008803AFF00803024
:100DF6007F02031D002F65302F020318032F042FD7
:100E0600F52F20002F088231F522863120002F0889
:100E16008131402186310A302000AA002A08B90013
:100E2600F52FF52F85311825863177082000B20178
:100E3600B2077608B101B107B21B222F232FF52F77
:100E46003208803AFF0080307F02031D2C2F653068
:100E5600310203182F2F302FF52F20003108823151
:100E6600F5228631200031088131402186318131D9
:100E76006C2186310A302000AA002A08B900F52F15
:100E8600F52F85311825863177082000B401B4077F
:100E96007608B301B307B41B512F522FF52F340830
:100EA600803AFF0080307F02031D5B2F65303302DE
:100EB60003185E2F5F2FF52F200033088231C822DA
:100EC6008631200033088131472186310A302000DF
:100ED600AA002A08B900F52FF52F85311825863185
:100EE60077082000B601B6077608B501B507B61B28
:100EF6007D2F7E2FF52F3608803AFF0080307F0247
:100F0600031D872F6530350203188A2F8B2FF52F87
:100F1600200035088231C82286312000350881310B
:100F2600472186318131792186310A302000AA0095
:100F36002A08B900F52FF52F823154228631F52F74
:100F4600F52F20002D080A3A0319AA2E073A03198D
:100F5600AA2E323A0319B32E7D3A0319152F013AF8
:100F66000319702F213A0319E92E013A0319442F68
:100F76001D3A0319C92E9F2FF52F8331222386315F
:100F8600F52FC52F813186218631F52FF52F823138
:100F96000E2286312000AA002A08AE002E088231D1
:100FA60079228631F52F023081314E218631F52F97
:100FB600013081314E218631F52F200039088131EB
:100FC600A3218631F52FF52F20003908F83E031CA2
:100FD600E02F8400083004020318E02F8031043526
:100FE600323E82002000390881315F21863122009D
:0A0FF6000E10972E972E803102286E
:020000040001F9
:04000E00C4EFCFDF8D
:00000001FF
