:08000000803102288B31972B9F
:10000A0080302000A6002530A7008E3122268031BC
:10001A00080001308A317E2280318A31D122803132
:10002A0032308A31852280318A31F8228031083093
:10003A008A31772280318A31EB22803101308A314C
:10004A00702280318A31DE228031F901F90A0430C6
:10005A008B31AC23803144308A319A228031453049
:10006A008A319A22803146308A319A22803141304F
:10007A008A319A22803155308A319A2280314C3025
:10008A008A319A22803154308A319A22803153300F
:10009A008A319A2280318A31612280318C31C52499
:1000AA0080318A315D2280318D311F2580310800EF
:1000BA000130F80078082000CD0704304D020318FB
:1000CA0067286828CA285308023A031D6D286E2833
:1000DA00BC2895289528D501D50A40308A31932223
:1000EA0080310314D128D1280230F8007808200082
:1000FA00D50000308A31932280310314D128D128C7
:10010A000230F80078082000D50040308A31932266
:10011A0080310314D128D1280310D128D128D1281D
:10012A0020004D08013A03197028033A0319792867
:10013A00013A031985289128D128BC2840308A31F0
:10014A00932280310314D128D12814308A31932282
:10015A0080310314D128D12854308A319322803136
:10016A000314D128D1280310D128D128D12820005E
:10017A004D08013A0319A328033A0319AA28013A98
:10018A000319B128B828D128D1280430F8007808F2
:10019A00CD000310D128D12808002000AC0064301B
:1001AA00F6000030F7002C08A800A9012808F8007A
:1001BA002908F9008F312727803176082000AA0004
:1001CA002A08AB000A30A4000030A5000A30F60065
:1001DA000030F7002C08A800A9012808F80029080F
:1001EA00F9008F312727803177082000A701A70758
:1001FA007608A601A6078E315E26803120002408E3
:10020A00AA002A08AD000A30A4000030A5002C0874
:10021A00A800A9012808A6002908A7008E315E2691
:10022A00803120002408AA002A08AE00AB08031D6A
:10023A001F2920293929AD08031D242925292B29FD
:10024A002E08303E8A316A2280314C2920002D083E
:10025A00303E8A316A22803120002E08303E8A31AF
:10026A006A2280314C294C2920002B08303E8A31E1
:10027A006A22803120002D08303E8A316A2280317C
:10028A0020002E08303E8A316A2280314C2908002B
:10029A00F7007408860087018101F901F90AFA0159
:1002AA0056298A3165228131F5007508FB007B08E1
:1002BA000D3A031961296229B6297B080A3A031DF6
:1002CA00672968296A29B629B62974088600870128
:1002DA000108FF3A0319722973297B290130F500B5
:1002EA00740886008701750881077B297908031D30
:1002FA007F29B22930307B02031C84298529B2293F
:10030A003A307B0203188A298B29B2297B08D03E0E
:10031A00F5007508F8000A307A02031C9529962917
:10032A00A2297A080A3A031D9B299C29AF29F808B1
:10033A00031DA029A129AF29A2290A30F5007508B1
:10034A00F0007A088B31C22381317807F6007608EB
:10035A00FA005629F90156295629F901562956292A
:10036A0056297908031DBA29CF29740886008701FE
:10037A000108003A0319C229C329CB297A08F500D2
:10038A0077088600870175088100CB290314D229D2
:10039A00D229D2290310D229D2290800F10020003B
:1003AA005408043A031DDA29DB29202AF11FDE2921
:1003BA00DF29E22922008C17E42922008C13711FFD
:1003CA00E729E829EA290C17EB290C13F11EEE2973
:1003DA00EF29F1298C16F2298C12711EF529F629BA
:1003EA00F8290C16FA290C12FA298D314C2581317B
:1003FA00F11D002A012A042A22008C17062A22004B
:10040A008C13711D092A0A2A0C2A0C170D2A0C139F
:10041A00F11C102A112A132A8C16142A8C12711C08
:10042A00172A182A1A2A0C161C2A0C121C2A8D3171
:10043A004C2581315F2AF11F232A242A272A2200E8
:10044A008C17292A22008C13711F2C2A2D2A2F2A55
:10045A000C17302A0C13F11E332A342A362A8C162A
:10046A00372A8C12711E3A2A3B2A3D2A0C163E2A3A
:10047A000C12F11D412A422A442A8C15452A8C1154
:10048A00711D482A492A4B2A0C154C2A0C11F11CB9
:10049A004F2A502A522A8C14532A8C10711C562A1D
:1004AA00572A592A0D145B2A0D105B2A8D314C25C7
:1004BA0081315F2A08002000A101F31F652A662AFC
:1004CA00732AF009F109F209F309F00A0319F10A8A
:1004DA000319F20A0319F30AA101A10AF71F762ADE
:1004EA00772A872AF409F509F609F709F40A03199C
:1004FA00F50A0319F60A0319F70A0130F800780811
:10050A00A106872A0030A5000030A4000030A3000D
:10051A000030A20073087204710470040319962A49
:10052A00972ADE2AA001A00AA62A0130F035F10D89
:10053A00F20DF30D890B9B2A0130F8007808A00709
:10054A00A62AF31FA92AAA2A9A2AAC2AAC2A013077
:10055A00A235A30DA40DA50D890BAD2A7308770248
:10056A00031DC12A72087602031DC12A7108750289
:10057A00031DC12A70087402031CC42AC52ACF2A83
:10058A007008F4027108F53B7208F63B7308F73BF2
:10059A002214CF2A0130F336F20CF10CF00C890B3D
:1005AA00D02A0130A002031DDB2ADC2AAC2ADE2A6B
:1005BA00DE2A2108031DE22AEE2AA209A309A409B8
:1005CA00A509A20A0319A30A0319A40A0319A50A69
:1005DA00EE2A2508F3002408F2002308F100220875
:1005EA00F000F72A08008D31B325823122000E145B
:1005FA008C319A248231031C032B042B092B803162
:10060A000E208231072B092B8C31F2248231803162
:10061A00052082318B31232382312000C70047080D
:10062A00F9008B31362382318B31AC2382312000A1
:10063A00CB01CC012E2B4B08273E88310A0083318F
:10064A008A319A22823101302000CB070030CC3D1A
:10065A002E2B4B08273E88310A0083310038031DB0
:10066A00372B382B202B392BCB01CC014030F6000D
:10067A000030F70080315D208231522B20004B0878
:10068A00163E88310A0083318A319A22823101303A
:10069A002000CB070030CC3D522B20004B08163EE1
:1006AA0088310A0083310038031D5C2B5D2B432BF4
:1006BA005E2B8A315D2282318D311F2582318A314A
:1006CA00612282318C31C524823129302000C9004F
:1006DA009630C800A630C700C70B712BC80B712B08
:1006EA00C90B712B8B316F23823122000E107D2BA7
:1006FA008A31652282312000C7004708CA002200D9
:10070A000E1420004A0884319024823122000E10EF
:10071A007D2B7D2B80310228F90074088600870121
:10072A008101F801982B8A3165228331F500750819
:10073A00FA007A080D3A0319A32BA42B842C7A0801
:10074A000A3A031DA92BAA2BAC2B842C842C7408DF
:10075A00860087010108FF3A0319B42BB52BBD2B7C
:10076A000130F50074088600870175088107BD2BE2
:10077A00F808031DC12BC22B772C30307A02031CD8
:10078A00C72BC82BD52B3A307A020318CD2BCE2B88
:10079A00D52B7908860087018101F801F80A772CA0
:1007AA007A082B3A031DDA2BDB2BE02B0230F500FB
:1007BA007508F800772C7A082D3A031DE52BE62BED
:1007CA00EB2B0330F5007508F800772CFF30F500A5
:1007DA007508F800772C772C772C772C772C30300B
:1007EA007A02031CF92BFA2B362C3A307A020318B8
:1007FA00FF2B002C362C7A08D03EF5007508F7003E
:10080A007908860087010A300102031C0D2C0E2C80
:10081A001D2C79088600870101080A3A031D162C47
:10082A00172C302CF708031D1B2C1C2C302C1D2CCC
:10083A000A30F5007508F00079088600870101087A
:10084A008B31C22383317707F60079088600870146
:10085A0076088100982BFF30F5007508F800982B70
:10086A00982BFF30F5007508F800982B982B7A081A
:10087A002B3A031D412C422C542C790886008701FF
:10088A006430010203184A2C4B2C982B0130F500D6
:10089A0079088600870175088107982B982BFF3005
:1008AA00F5007508F800982B982B7A082D3A031D45
:1008BA005F2C602C702C7908860087010108003AA9
:1008CA000319682C692C982B790886008701013056
:1008DA008102982B982BFF30F5007508F800982BA9
:1008EA00982B982B7808013A0319F42B033A031929
:1008FA003C2C013A03195A2C982B982B982B7808E0
:10090A00FF3A031D892C8A2C8C2C03108F2C03147C
:10091A008F2C8F2C08002000C600EC2F8B318323EC
:10092A0084310A302000AF002F08C600FA2F8A311E
:10093A00652284312000AF002F08C300722FA52C36
:10094A008B316F2384310A302000AF002F08C60094
:10095A00FA2F8C3175248431031CB42CB52CFA2F50
:10096A002000B801B901C72C3808013E88310A00B5
:10097A0084318A316A22843101302000B80700307C
:10098A00B93DC72C3808013E88310A008431003845
:10099A00031DD02CD12CB92CD22C0A30AF002F0831
:1009AA00C600FA2FFA2F8C3175248431031CDE2CF1
:1009BA00DF2CFA2F8C31F22484318A31612284317E
:1009CA008C31C52484318A315D2284318D311F25D1
:1009DA0084318B31232384312000AF002F08F500A6
:1009EA008B31362384318E31BD26843103308A31EE
:1009FA008C2284310A302000AF002F08C600FA2F5B
:100A0A00FA2F8A31652284312000AF002F08BE00F8
:100A1A003E080D3A0319122D132D1A2D3E080A3AD3
:100A2A00031D182D192D372D1A2D8A31B92284311B
:100A3A000318202D212D272D2D302000B100003044
:100A4A00B2002D2D2B302000B1000030B2002D2D28
:100A5A0031088A316A2284310A302000AF002F0817
:100A6A00C600FA2F8C3175248431031C3D2D3E2D8E
:100A7A00FA2F20003E082B3A031D442D452D4F2DF9
:100A8A0001308B31DB2384310A302000AF002F087C
:100A9A00C600FA2F3E082D3A031D542D552DFA2F64
:100AAA0000308B31DB2384310A302000AF002F085D
:100ABA00C600FA2FFA2FFA2FFA2FFA2F8A31652257
:100ACA0084312000AF002F08BF003F080D3A0319F8
:100ADA006F2D702D772D3F080A3A031D752D762D3F
:100AEA00942D772D8A31AE22843103187D2D7E2DE7
:100AFA00842D2D302000B3000030B4008A2D2B3015
:100B0A002000B3000030B4008A2D33088A316A22EB
:100B1A0084310A302000AF002F08C600FA2F8C312A
:100B2A0075248431031C9A2D9B2DFA2F20003F082F
:100B3A002B3A031DA12DA22DAC2D01308B31F623AA
:100B4A0084310A302000AF002F08C600FA2F3F0870
:100B5A002D3A031DB12DB22DFA2F00308B31F62319
:100B6A0084310A302000AF002F08C600FA2FFA2F6E
:100B7A00FA2FFA2FFA2F8A31652284312000AF002A
:100B8A002F08C00040080D3A0319CC2DCD2DD42DC5
:100B9A0040080A3A031DD22DD32DF12DD42D8A31C6
:100BAA00A32284310318DA2DDB2DE12D2D3020000C
:100BBA00B5000030B600E72D2B302000B50000301C
:100BCA00B600E72D35088A316A2284310A302000BE
:100BDA00AF002F08C600FA2F8C3175248431031C0C
:100BEA00F72DF82DFA2F200040082B3A031DFE2D71
:100BFA00FF2D092E01308B315C2384310A3020000D
:100C0A00AF002F08C600FA2F40082D3A031D0E2EFA
:100C1A000F2EFA2F00308B315C2384310A302000EA
:100C2A00AF002F08C600FA2FFA2FFA2FFA2FFA2F41
:100C3A001E2E8A31612284312000AF002F08C400A1
:100C4A003A30AF002F08F4004430833191238431C5
:100C5A00031C302E312EFA2F2000BA08031D362E1F
:100C6A00372E3C2E44088031D2208431472E200072
:100C7A0044088C31C5248431200044088A317E22FC
:100C8A008431472E0A302000AF002F08C6004308DF
:100C9A00423A031D512E522EFA2F8A31D122843123
:100CAA00FA2FFA2FFA2F592E8A315D228431200029
:100CBA00AF002F08C5003B30AF002F08F4004530C5
:100CCA00833191238431031C6B2E6C2EFA2F200062
:100CDA00BB08031D712E722E772E45088031D22053
:100CEA008431822E200045088D311F258431200051
:100CFA0045088A3185228431822E0A302000AF00CD
:100D0A002F08C6004308433A031D8C2E8D2EFA2F56
:100D1A008A31F8228431FA2FFA2FFA2F942E8B3146
:100D2A00232384312000AF002F08C1003C30AF00DC
:100D3A002F08F400413081314D218431031CA62E45
:100D4A00A72EFA2F2000BC08031DAC2EAD2EBD2EF7
:100D5A004108AF00B0012F08A8003008A9008F3160
:100D6A00922784310A302000AF002F08C600DF2EF8
:100D7A004108013A031DC22EC32ECD2E01308A31FD
:100D8A00772284310A302000AF002F08C600DF2EF8
:100D9A004108023A031DD22ED32EDF2E02308A31A9
:100DAA00702284310A302000AF002F08C600DF2EDF
:100DBA00DF2EDF2E46080A3A031DE42EE52EFA2F0F
:100DCA008B31232384312000AF002F08F5008B31AB
:100DDA00362384318E31BD26843120004308443ABB
:100DEA00031DF82EF92EFA2F8A31DE228431FA2FCA
:100DFA00FA2FFA2FFA2F012F8B3136238431200054
:100E0A00AF002F08C2003D30AF002F08F400423077
:100E1A0081314D218431031C132F142FFA2F200006
:100E2A00BD08031D192F1A2F2A2F4208AF00B0013F
:100E3A002F08A8003008A9008F31922784310A3080
:100E4A002000AF002F08C6004C2F4208043A031DA9
:100E5A002F2F302F3A2F04308A31772284310A30EB
:100E6A002000AF002F08C6004C2F4208083A031D85
:100E7A003F2F402F4C2F08308A31772284310A3095
:100E8A002000AF002F08C6004C2F4C2F4C2F4608CD
:100E9A000A3A031D512F522FFA2F8B312323843103
:100EAA002000AF002F08F5008B31362384318E31B4
:100EBA00BD26843120004308493A031D652F662F59
:100ECA00FA2F8A31EB228431FA2FFA2FFA2FFA2FCE
:100EDA008C3175248431FA2FFA2F200043080A3AFC
:100EEA000319A52C073A0319A52C2C3A0319C02D6E
:100EFA00053A0319632D0E3A0319062D153A0319FB
:100F0A00AE2C7D3A03191E2E013A0319592E073ABF
:100F1A000319942E0D3A0319012F2B3A03191E2E89
:100F2A00013A0319592E073A0319942E0D3A031957
:100F3A00012F173A0319D82C6D2FFA2FA42F8031BD
:100F4A005D208431031CAA2FAB2FB12F0A30200059
:100F5A00AF002F08C600FA2F0D302000AF002F086F
:100F6A00C600FA2FFA2F8B316F2384310A30200002
:100F7A00AF002F08C600FA2F8A316522843120007B
:100F8A00AF002F08B70037088D31EA2584310A30BF
:100F9A002000AF002F08C600FA2F02308A318C22B7
:100FAA0084310A302000AF002F08C600FA2F013022
:100FBA008A318C2284310A302000AF002F08C60003
:100FCA00FA2F46088A319A228431FA2FFA2F200002
:100FDA004608F83E031CE62F840008300402031872
:100FEA00E62F883104352F3E8200200046088A31D8
:100FFA006A2284310800003445346C34733469340D
:10100A006434693420344B3420343234303431344B
:10101A0033342D34303431342D34313434340034D3
:10102A0000347734773477342E346A346D34653447
:10103A0064347634653464342E3463346F346D34F6
:10104A000034003445346C3473346934643469349C
:10105A00003400348431932C84319C2C8731A42FA2
:10106A008731B82F8731C12F8731A42F8731D22FEB
:04107A008731DC2FAF
:1014B40001340834033420005008602A0800200056
:1014C4004F08642A08008C312F248A31692A0800C5
:1014D400F10071088A31C4228A310800F1007108D0
:1014E400F00070082000D1000800F1007108F0003D
:1014F40070082000D2000800F1007108F0007008A4
:101504002000CF000800F1007108F00070082000EE
:10151400D0000800F1007108F00070082000D50028
:101524000800F500750880388D31EA258A310800F5
:10153400F20022008D150D1272088131D3218A31F7
:10154400080020004E18A72AA82AAA2A0310AD2AA8
:101554000314AD2AAD2A08002000CE18B22AB32AFB
:10156400B52A0310B82A0314B82AB82A08002000A0
:101574004E19BD2ABE2AC02A0310C32A0314C32A43
:10158400C32A0800F000C72A64002000111ECB2AD9
:10159400CC2AC62ACD2A700823009A000800F1300C
:1015A400F0000030F10020004F08F3007308F2004F
:1015B4008D317C258A310800F330F0000030F100D1
:1015C40020005108F3007308F2008D317C258A3124
:1015D4000800F230F0000030F10020005208F3005F
:1015E4007308F2008D317C258A310800F030F00058
:1015F4000030F10020005008F3007308F2008D3130
:101604007C258A3108007108230092019207700832
:101614009101910715139513151464002300130801
:10162400132B080022008D110D128C130C138C1631
:101634000C168C110C118C100D108D314C258B3126
:10164400080020005108023A0319292B2A2B2F2BBA
:101654000130F0000030F100332B0230F000003094
:10166400F1007008352B080020005208043A0319D1
:101674003C2B3D2B422B0830F0000030F100462B70
:101684000430F0000030F1007008482B08002300FB
:101694001D121D161908F0007008F1001908F00059
:1016A4007008F1001908F0007008F1009D139D17EF
:1016B40064000800F7000030F708031D0130F5004E
:1016C40020004E0806397504F6007608F8007808FC
:1016D40008388D31EA258B3108000330F500750890
:1016E4002000D50001308D31EA258B3120005308CC
:1016F400023A031D7E2B7F2B822BD501D50A822B28
:10170400080020005308023A031D892B8A2B8D2BD5
:10171400D501D50A922B0330F5007508D500922B1C
:1017240002308D31EA258B310800CD01CE01CF0185
:10173400D001D101D2018A315A228B31D3008A31AE
:101744005B228B31D4008A315C228B31D50020009E
:101754008231F82AFD000330FC000830FB007830A9
:10176400FA00FA0BB32BFB0BB32BFC0BB32B79084E
:10177400FA007A08F5007D088E31BD268B31080009
:10178400F300F201C52B731CC82BC92BCE2B700898
:10179400F1007108F207CE2B0310F00D0310F30CC7
:1017A400F308031DD62BD72BC52BD82B7208DA2BA5
:1017B4000800F600F608031DE02BE12BE42BF701EB
:1017C400F801E92B0430F7000030F800E92B200081
:1017D4004E0803397704F5007508F90079080838CC
:1017E4008D31EA258B310800F600F608031DFB2B2A
:1017F400FC2BFF2BF701F801042C0230F70000301A
:10180400F800042C20004E0805397704F50075080B
:10181400F900790808388D31EA258B310800F20087
:1018240022008D110D128C130C138C167208043ABD
:10183400031D1D2C202C22000C16222C22000C121D
:101844008C110C118C100D108D314C258C317208BB
:10185400F10071082000D400080023001D1D332C62
:10186400342C382C8B3149238C31382C23009D1C8B
:101874003C2C3D2C432C8B3149238C31432C432C61
:1018840064002000911E472C482C422C492C230034
:101894001908F2007208F3007308502C0800F401D0
:1018A400F501542C701C572C582C5C2C7208F4072E
:1018B4007308F53D0130F235F30D890B5D2C0130D1
:1018C400F136F00C890B622C71087004031D6B2C2B
:1018D4006C2C542C6D2C7508F101F1077408F0017F
:1018E400F007742C0800F501F50A782C8A3165227A
:1018F4008C31F4007408F60076080D3A0319832C31
:10190400842C8F2C76080A3A031D892C8A2C8C2C63
:101914008F2C8F2CF501782C782CF508031D932C33
:10192400942C962C0310992C0314992C992C0800B0
:10193400F201F20A21000D1422008C100B30F10088
:101944006230F000F00BA42CF10BA42C000020005A
:101954000D1CAD2CAE2CAF2CF20122008C140B30DC
:10196400F1006230F000F00BB52CF10BB52C000047
:1019740020000D18BE2CBF2CC02CF20121000D102C
:10198400720CC42C08002000A4006430F60000305F
:10199400F7002408FB00FC01FB09FC09FB0A0319FE
:1019A400FC0A7B08643EF00000307C3DF100FF300F
:1019B400F2000030F3008C3151248C317108F901AC
:1019C400F9077008F801F8078F3127278C3176085A
:1019D400FD007D082000A5002508250098000800CA
:1019E400F030F0000030F1008B3105238C31F2002F
:1019F40072082000D000F130F0000030F1008B318B
:101A040005238C31F20072082000CF00F230F00080
:101A14000030F1008B3105238C31F2007208200074
:101A2400D200F330F0000030F1008B3105238C310B
:101A3400F20072082000D10008002000A4006430E5
:101A4400F6000030F7002408FB00FC01FB09FC0948
:101A5400FB0A0319FC0A7B08643EF00000307C3D5D
:101A6400F100FF30F2000030F3008C3151248D314D
:101A74007108F901F9077008F801F8078F31272771
:101A84008D317608FD007D082000A500250825007D
:101A94009100080020005508033A031D522D532DD0
:101AA4005E2D22008D160D150D30F000F00B582D13
:101AB40022008D120D11772D20005508023A031DC6
:101AC400642D652D6E2D22000D150D30F000F00BE8
:101AD400692D22000D11772D22008D160D30F00096
:101AE400F00B722D22008D12772D3530F000F00BA3
:101AF400792D0800F11B7F2D802DB22D7108803ABD
:101B0400FF0081307F02031D892D00307002031C09
:101B14008C2D8D2D8F2DB22DB22D710823009201A5
:101B24009207700891019107720893001515151317
:101B340095138B139E2D8B138B1BA12DA22D9D2DE5
:101B4400A32D553023009600AA3096009514151144
:101B5400AC2D640023009518B02DB12DAB2DB22D02
:101B640008008B13210019179916191699112300CF
:101B74008C018D01013021008C00C2308D00BE30FB
:101B84008E0022008C018D018E01FF3020009B000D
:101B940025001614931513159310131091019A121E
:101BA4001A121D149A151A159A101A10FF3098005B
:101BB4009A161A16200091109C101C101C15E22D68
:101BC400911CE52DE62DE22D21000E118E1008004A
:101BD400F40022008D110D1274088131D3218D314E
:101BE4007408013A0319F72DF82DFE2D7408023AF2
:101BF400031DFD2DFE2D0A2E2000CD011530F3000E
:101C0400C630F200F20B042EF30B042E0000212E3A
:101C1400F8307405F2007208083A031D122E132ED0
:101C24001A2E74080739F20072082000CE00212E03
:101C34004230F200F20B1C2E0000212E212E08004F
:101C440020002608F0002708F100890D893B890946
:101C5400F200F3000130F700E830F6004830F500F8
:101C64000030F400823160228E317308FC00720867
:101C7400FB007108FA007008F9000030F30000302E
:101C8400F2000030F1001030F0007C08F7007B080F
:101C9400F6007A08F5007908F400823160228E316A
:101CA4007008FF3E23009B009F111E151E129D17F6
:101CB4009E161D1664000800FD012000A71F632E58
:101CC400642E6C2EA609A709A60A0319A70AFD010A
:101CD400FD0A6C2EA51F6F2E702E762EA409A50961
:101CE400A40A0319A50A762E2508240403197B2EB9
:101CF4007C2EAB2EFC01FC0A892E0130A435A50DE7
:101D0400890B802E0130FB007B08FC07892EA51F60
:101D14008C2E8D2E7F2E8F2E8F2E25082702031DAD
:101D2400952E24082602031C982E992E9E2E2408F4
:101D3400A6022508A73B9E2E0130A536A40C890BCC
:101D44009F2E0130FC02031DA82EA92E8F2EAB2E30
:101D5400AB2E7D08031DAF2EB52EA609A709A60A32
:101D64000319A70AB52E2708A501A5072608A4016B
:101D7400A407BC2E0800F8000330F6007608200003
:101D8400D5008B3114238E316830F700E430F6002F
:101D9400F60BCA2EF70BCA2E00008B3114238E319A
:101DA4000B30F7006230F600F60BD62EF70BD62E6A
:101DB40000008B3114238E310B30F7006230F600B3
:101DC400F60BE22EF70BE22E000078088C3111247A
:101DD4008E317808043A031DF02EF12EF62E2830A9
:101DE4008D31EA258E31FA2E38308D31EA258E3147
:101DF40008308D31EA258E3101308D31EA258E315E
:101E040006308D31EA258E3114308D31EA258E313C
:101E140002308D31EA258E310C308D31EA258E3138
:101E24002000CD017508F6007608D3005308023A65
:101E3400031D1D2F1E2F212FD501D50A262F033058
:101E4400F6007608D500262F08002000A101F71F10
:101E54002C2F2D2F352FF609F709F60A0319F70A47
:101E6400A101A10A352FF91F382F392F432FF80963
:101E7400F909F80A0319F90A0130FA007A08A106E7
:101E8400432FA201A3017708760403194A2F4B2F8D
:101E9400802FA001A00A582F0130F635F70D890BC9
:101EA4004F2F0130FA007A08A007582FF71F5B2F35
:101EB4005C2F4E2F5E2F5E2F0130A235A30D890BB0
:101EC4005F2F77087902031D692F76087802031CB7
:101ED4006C2F6D2F732F7608F8027708F93B2214C4
:101EE400732F0130F736F60C890B742F0130A002E2
:101EF400031D7D2F7E2F5E2F802F802F2108031D31
:101F0400842F8A2FA209A309A20A0319A30A8A2FDC
:101F14002308F701F7072208F601F607912F0800B6
:101F240010302000AD002730AE00AC01AC0AE72F22
:101F34000A302000A4000030A5002E08F701F7079E
:101F44002D08F601F6072908F901F9072808F80110
:101F5400F8078F3127278F3177082000A701A707BB
:101F64007608A601A6078E315E268F31200025084B
:101F7400AB01AB072408AA01AA072B082A04031DF6
:101F8400C42FC52FCB2F2C08031DC92FCB2FD22F25
:101F9400D22F2A08303E8A316A228F312000AC01C8
:101FA4000A30F6000030F7002E08F901F9072D0871
:101FB400F801F8078F3127278F3177082000AE0109
:101FC400AE077608AD01AD07E72F2E08803AFF0073
:101FD40080307F02031DF02F01302D020318F32FF0
:101FE400F42F9A2FF52F20002C08031DFA2FFF2F12
:0C1FF40030308A316A228F31FF2F080044
:020000040001F9
:04000E00C4EFCFDF8D
:00000001FF
